:020000040800F2
:1000000078060020310200087D0A0008790A0008FD
:100010007B0A0008C5040008B10D000800000000BC
:10002000000000000000000000000000750B000848
:10003000C7040008000000007F0A0008310C000817
:100040004B0200084B0200084B0200084B0200085C
:100050004B0200084B0200084B0200084B0200084C
:100060004B0200084B0200084B0200084B0200083C
:100070004B0200084B0200084B0200084B0200082C
:100080004B0200084B0200084B0200084B0200081C
:100090004B0200084B0200084B0200084B0200080C
:1000A0004B0200084B0200084B0200084B020008FC
:1000B0004B0200084B0200084B0200084B020008EC
:1000C0004B0200084B0200084B0200084B020008DC
:1000D0004B020008910C00084B0200084B0200087C
:1000E0004B0200084B0200084B0200084B020008BC
:1000F0004B0200084B0200084B0200084B020008AC
:100100004B0200084B0200084B0200084B0200089B
:100110004B0200084B0200084B0200084B0200088B
:100120004B0200084B0200084B0200084B0200087B
:100130004B0200084B0200084B0200084B0200086B
:100140004B0200084B0200084B0200084B0200085B
:100150004B0200084B0200084B0200084B0200084B
:100160004B0200084B0200084B0200084B0200083B
:100170004B0200084B0200084B0200084B0200082B
:100180004B0200084B02000800F002F800F041F8B2
:100190000AA090E8000C82448344AAF10107DA45E2
:1001A00001D100F036F8AFF2090EBAE80F0013F0F3
:1001B000010F18BFFB1A43F001031847B80D0000E8
:1001C000D80D0000103A24BF78C878C1FAD8520779
:1001D00024BF30C830C144BF04680C6070470000C1
:1001E0000023002400250026103A28BF78C1FBD840
:1001F000520728BF30C148BF0B607047782900F014
:100200007980002070471FB500F09AFE1FBD10B521
:1002100010BD00F027F91146FFF7F5FF00F0D4FDFF
:1002200000F045F903B4FFF7F2FF03BC00F0C1FD95
:100230000948804709480047FEE7FEE7FEE7FEE77A
:10024000FEE7FEE7FEE7FEE7FEE7FEE704480549B6
:10025000054A064B70470000350C0008890100086C
:100260007800002078060020780200207802002024
:10027000704700000FB4044910B503AA029800F0BB
:10028000C3F810BC5DF814FB100000202DE9F0410C
:100290000E460446002020622046E168884730B3BD
:1002A000252805D0D4E901219047206A401CF2E7B7
:1002B000E168204600278847050018D0A5F14100D5
:1002C000192802D820354FF40067324629462046C7
:1002D0002760FFF793FF40B1012804D0F61D26F0F8
:1002E00007060836D8E7361DD6E72846DAE7206A3B
:1002F000BDE8F08170B504460D4621461068AFF3A5
:1003000000802188090502D50F4A7A4402E00E4A8E
:100310007A440E32002104F1240305E000F00F06B8
:100320000009965D5E54491C0028F7D1207800230F
:10033000000704D5702D02D009B1022311322046E6
:10034000BDE8704000F006B83C0C000070477047F4
:10035000704770472DE9F0470D469946924604468E
:1003600000F124080168880604D5E06921F0100135
:10037000216000E00120A84201DD471B00E00027CA
:10038000A1697A1902EB0900081AA0612078C00659
:1003900002D42046AFF30080002608E0D4E9012112
:1003A0001AF806009047206A401C761C20624E45D1
:1003B000F4DB2078C0060AD52046AFF3008006E0C3
:1003C000D4E9012130209047206A401C2062381E69
:1003D000A7F10107F4DC07E0D4E9012118F80500D2
:1003E0009047206A401C2062281EA5F10105F3DC1D
:1003F0002046AFF300802078000602D50220BDE839
:10040000F0870120FBE70000074B70B50D467B44E9
:1004100000F011F80446284600F020F810B14FF023
:10042000FF3070BD204670BDA309000001694A1C61
:1004300002610878704700B58FB0CDE90131002125
:10044000059105497944CDE9031011466846FFF747
:100450001DFF0FB000BD0000E5FFFFFF007B00F0B7
:1004600080007047754600F029F8AE4605006946E1
:10047000534620F00700854618B020B5FFF7E6FE8A
:10048000BDE820404FF000064FF000074FF0000895
:100490004FF0000B21F00701AC46ACE8C009ACE816
:1004A000C009ACE8C009ACE8C0098D4670470446F5
:1004B000AFF300802046FFF7B5FE0000004870470C
:1004C00014000020FEE770472DE9FC5F0121782031
:1004D00000F0D6FA02248DF8044000208DF80600C2
:1004E00001208DF8070003208DF805000120009001
:1004F0006946DB4800F072FA0C220021D84800F06F
:10050000ABFA00946946D64800F068FA0C22012143
:10051000D34800F0A1FA4FF0040BCDF800B06946C3
:10052000CF4800F05BFA0C220221CD4800F094FA8B
:10053000082000906946CA4800F050FA0C220321B6
:10054000C74800F089FA102500956946C44800F0B4
:1005500045FA0C220421C24800F07EFA20260096BB
:100560006946BF4800F03AFA0C220521BC4800F069
:1005700073FAE70200976946B94800F02FFA0C2297
:100580001146B74800F068FA4FF40058CDF80080E3
:100590006946B34800F022FA0C220D21B04800F061
:1005A0005BFA4FF48049CDF800906946AC4800F002
:1005B00015FA0C220E21AA4800F04EFA4FF4004A18
:1005C000CDF800A06946A64800F008FA0C220F21D9
:1005D000A34800F041FA012000906946A14800F0CC
:1005E000FDF90C2200219F4800F036FA009469467C
:1005F0009C4800F0F3F90C2201219A4800F02CFAF3
:10060000CDF800B06946974800F0E8F90C220221C5
:10061000944800F021FA082000906946914800F0C3
:10062000DDF90C2203218F4800F016FA0095694687
:100630008C4800F0D3F90C2204218A4800F00CFA0F
:1006400000966946874800F0C9F90C2205218548C3
:1006500000F002FAA00200906946834800F0BEF95B
:100660000C220B21804800F0F7F9009769467E487C
:1006700000F0B4F90C2211467B4800F0EDF9CDF8FA
:1006800000806946784800F0A9F90C220D217648CF
:1006900000F0E2F9CDF800906946734800F09EF949
:1006A0000C220E21704800F0D7F9CDF800A0694661
:1006B0006D4800F093F90C220F216B4800F0CCF943
:1006C000012000906946684800F088F90C2200215A
:1006D000654800F0C1F900946946634800F07EF96E
:1006E0000C220121604800F0B7F980200090694693
:1006F0005E4800F073F90C2207215C4800F0ACF969
:10070000E00100906946594800F068F90C22082180
:10071000564800F0A1F9200200906946534800F0C5
:100720005DF90C220921514800F096F94FF4806BD5
:10073000CDF800B069464D4800F050F90C220A216E
:100740004A4800F089F9A00200906946474800F045
:1007500045F90C220B21454800F07EF900976946C7
:10076000424800F03BF90C221146404800F074F971
:10077000CDF8008069463D4800F030F90C220D218B
:100780003A4800F069F9CDF800906946374800F022
:1007900025F90C220E21354800F05EF9CDF800A0B5
:1007A0006946324800F01AF90C220F212F4800F058
:1007B00053F9E001009069462B4800F00FF90C2234
:1007C0000821294800F048F920020090694626488F
:1007D00000F004F90C220921234800F03DF9CDF87E
:1007E00000B06946204800F0F9F80C220A211E48A2
:1007F00000F032F9CDF800B069461A4800F0EEF882
:100800000C220A21174800F027F90096694616487D
:1008100000F0E4F80C220521134800F01DF90095C2
:100820006946114800F0DAF80C2204210E4800F065
:1008300013F9009469460D4800F0D0F80C2201210C
:100840000A4800F009F9012000906946074800F0C5
:10085000C5F80C220021054800F0FEF8BDE8FC9F19
:100860000014024000180240000C02400010024038
:1008700000B597B0FFF728FE0121084600F00EF9F9
:10088000012001900A20029005200390002004908E
:100890000590069007900421089109900A90102174
:1008A0000B910C900D900E900F90109009021191E9
:1008B00012901390149001A81590169008A800F0BB
:1008C00019F80121042000F003F817B000BD000062
:1008D0008000A0F1C040002904D0016841F001016E
:1008E000016070470168024A1140016070470000D2
:1008F000FEFF0F0070B501688900A1F1C0410B68CF
:10090000344A1340D0E901242243D0E903452C4363
:1009100022434469224384692243C4692243046A0E
:100920002243446A2243846A2243C46A2243046BFA
:1009300022431A430A608168082907D101688900A7
:10094000A1F1C0410A6842F040020A600168491CF6
:100950008A00A2F1C042116801F04044416BD1E924
:10096000003543EA05138D688E892D0245EA064558
:100970002B430D8A43EA05530D7D896943EA0563DC
:100980000B4323431360C16AB1F5804F08D0006860
:100990006FF070418000A0F1C040C0F8041170BD3C
:1009A00001688900A1F1C041D1F804210A4B1A4025
:1009B000806BD0E9003443EA0413846885892402FB
:1009C00044EA05448069234303431343C1F80431D7
:1009D00070BD00008000F7FF0000F0CF2DE9F0416E
:1009E000002201274FF0030C07FA02F50B682B4099
:1009F000AB422CD1066853000CFA03F4A643066000
:100A00000E79D0F800809E4046EA080606600E790E
:100A1000012E01D0022E12D18668A64386604E793F
:100A2000D0F808809E4046EA080686604668AE43D5
:100A3000466045688E799640B6B235434560C568D4
:100A4000A543C560CC799C40C3681C43C460521C5C
:100A5000102AC9D3BDE8F08110B54B07DB0E9A40D0
:100A6000C90800EB8100016A0F249C40A143016288
:100A7000016A1143016210BDFEE7FEE7704770474F
:100A8000054A002903D011680143116070471168BD
:100A9000814311607047000030380240054A002948
:100AA00003D01168014311607047116881431160E0
:100AB0007047000038380240054A002903D0116809
:100AC0000143116070471168814311607047000055
:100AD0004438024070B5244B196801F00C01234CD6
:100AE00000291ED0661004291DD008291DD00460DD
:100AF000196801F0F00109091D4A545C0168E140E0
:100B000041601C6804F4E054A40A145D21FA04F462
:100B100084601B6803F460435B0BD25CD140C1600E
:100B200070BD0460E4E70660E2E70F4A121F116837
:100B3000C1F38055116801F03F0135B1B6FBF1F109
:100B40001468C4F38814614305E0B4FBF1F1146840
:100B5000C4F3881461431268C2F30142521C52006C
:100B6000B1FBF2F10160C3E7083802400024F40051
:100B700000000020704700000CB500220192009296
:100B80002749086840F4803008604FF4A0430868A3
:100B900000F4003000900198401C0190009810B9BA
:100BA00001989842F3D10868800302D50120009093
:100BB00000E000920098012831D1194840300268C5
:100BC00042F0805202601748026842F440420260DC
:100BD0001348083002680260026842F40042026072
:100BE000026842F4A0520260021F0F4B13600A68B1
:100BF00042F080720A600A689201FCD50B4A40F20A
:100C000005711160016821F003010160016841F084
:100C1000020101600168C1F381010229FAD10CBD12
:100C2000003802400070004008544007003C024079
:100C30007047000010B51248016841F4700101606E
:100C40001048016841F0010101600E4A002108329C
:100C5000116002680C4B1A400260031D0B4A1A60B7
:100C6000026822F48022026006480C300160FFF71F
:100C700083FF03494FF000608039086010BD000019
:100C800088ED00E000380240FFFFF6FE103000243F
:100C900010B5094C40F22551204600F01BF8002801
:100CA00008D0204600F07CF8C1B22046BDE81040D4
:100CB00000F07AB810BD000000100140002904D0F7
:100CC000818941F4005181817047818921F400516B
:100CD000818170470246002012880A4200D001201C
:100CE000704700007FB504460D46208A20F440512D
:100CF000E88808432082A08941F20C618843A988D2
:100D00002A8911436A8902431143A181A08A20F4F0
:100D10004071A8890843A0826846FFF7DBFE1E48A1
:100D2000844202D01D48844201D1039800E0029819
:100D3000A189090408D500EBC00101EB0010296866
:100D40004900B0FBF1F007E000EBC00101EB00103F
:100D500029688900B0FBF1F06422B0FBF2F10901CF
:100D60000B096FF018056B4300EB8300A3891D048A
:100D70004FF0320307D503EBC000B0FBF2F000F0F8
:100D80000700084306E003EB0010B0FBF2F000F0B0
:100D90000F00084320817FBD001001400014014076
:100DA0008088C0F308007047C1F308018180704754
:100DB000FEE7704703490A885206FCD5C2B28A8012
:100DC00070470000001001404FF4E13000F074F86B
:100DD000FFF74EFD11A0FFF74DFA4FF0D044AA20C7
:100DE000207015A0FFF746FA21781BA0FFF742FA02
:100DF0004BF6BB3060811DA0FFF73CFA618916A05D
:100E0000FFF738FA4FF0CC30606121A0FFF732FADB
:100E1000616911A0FFF72EFAFEE70000D5E2CAC70C
:100E2000D2BBB8F6454550524F4DB6C1D0B4CAB545
:100E3000D1E90D0A000000000D0AD6B8D5EBB7C302
:100E4000CECA5352414DA3ACD0B4C8EBCAFDBEDDEF
:100E500030784141200D0A000AB6C1C8A1CAFDBEC2
:100E6000DD3A307825780D0A000000000D0AD6B86A
:100E7000D5EBB7C3CECA5352414DA3ACD0B4C8EBE7
:100E8000CAFDBEDD307842424242200D0A00000019
:100E90000D0A3131D6B8D5EBB7C3CECA5352414D46
:100EA000A3ACD0B4C8EBCAFDBEDD307843434343A6
:100EB00043434343200D0A0070B586B00546012127
:100EC0000846FFF7DDFD01211020FFF7F5FD1A4E62
:100ED000072209213046FFF7BFFD07220A213046CD
:100EE000FFF7BAFD4FF4C060049002208DF81400A3
:100EF0008DF8150000248DF8164001208DF817009C
:100F000004A93046FFF76AFD0095ADF80440ADF83E
:100F10000640ADF80840ADF80C400C20ADF80A00D2
:100F2000064C69462046FFF7DDFE01212046FFF70B
:100F3000C5FE06B070BD0000000002400010014078
:100F40004FF04070E1EE100A7047303132333435E3
:100F500036373839414243444546403058003031F5
:100F60003233343536373839616263646566403010
:100F700078000000940F000800000020140000001A
:100F8000C4010008A80F0008140000206406000037
:100F9000E001000800000000010203040102030454
:080FA00006070809000000002B
:040000050800018965
:00000001FF
