:020000040800F2
:100000007806002031020008490A0008450A000865
:10001000470A0008C5040008610D00080000000040
:10002000000000000000000000000000250B000898
:10003000C7040008000000004B0A0008E10B00089C
:100040004B0200084B0200084B0200084B0200085C
:100050004B0200084B0200084B0200084B0200084C
:100060004B0200084B0200084B0200084B0200083C
:100070004B0200084B0200084B0200084B0200082C
:100080004B0200084B0200084B0200084B0200081C
:100090004B0200084B0200084B0200084B0200080C
:1000A0004B0200084B0200084B0200084B020008FC
:1000B0004B0200084B0200084B0200084B020008EC
:1000C0004B0200084B0200084B0200084B020008DC
:1000D0004B020008410C00084B0200084B020008CC
:1000E0004B0200084B0200084B0200084B020008BC
:1000F0004B0200084B0200084B0200084B020008AC
:100100004B0200084B0200084B0200084B0200089B
:100110004B0200084B0200084B0200084B0200088B
:100120004B0200084B0200084B0200084B0200087B
:100130004B0200084B0200084B0200084B0200086B
:100140004B0200084B0200084B0200084B0200085B
:100150004B0200084B0200084B0200084B0200084B
:100160004B0200084B0200084B0200084B0200083B
:100170004B0200084B0200084B0200084B0200082B
:100180004B0200084B02000800F002F800F041F8B2
:100190000AA090E8000C82448344AAF10107DA45E2
:1001A00001D100F036F8AFF2090EBAE80F0013F0F3
:1001B000010F18BFFB1A43F001031847C00C0000E1
:1001C000E00C0000103A24BF78C878C1FAD8520772
:1001D00024BF30C830C144BF04680C6070470000C1
:1001E0000023002400250026103A28BF78C1FBD840
:1001F000520728BF30C148BF0B607047782900F014
:100200007980002070471FB500F01EFE1FBD10B59D
:1002100010BD00F027F91146FFF7F5FF00F0ACFD27
:1002200000F045F903B4FFF7F2FF03BC00F099FDBD
:100230000948804709480047FEE7FEE7FEE7FEE77A
:10024000FEE7FEE7FEE7FEE7FEE7FEE704480549B6
:10025000054A064B70470000E50B000889010008BD
:100260007800002078060020780200207802002024
:10027000704700000FB4044910B503AA029800F0BB
:10028000C3F810BC5DF814FB100000202DE9F0410C
:100290000E460446002020622046E168884730B3BD
:1002A000252805D0D4E901219047206A401CF2E7B7
:1002B000E168204600278847050018D0A5F14100D5
:1002C000192802D820354FF40067324629462046C7
:1002D0002760FFF793FF40B1012804D0F61D26F0F8
:1002E00007060836D8E7361DD6E72846DAE7206A3B
:1002F000BDE8F08170B504460D4621461068AFF3A5
:1003000000802188090502D50F4A7A4402E00E4A8E
:100310007A440E32002104F1240305E000F00F06B8
:100320000009965D5E54491C0028F7D1207800230F
:10033000000704D5702D02D009B1022311322046E6
:10034000BDE8704000F006B8440B000070477047ED
:10035000704770472DE9F0470D469946924604468E
:1003600000F124080168880604D5E06921F0100135
:10037000216000E00120A84201DD471B00E00027CA
:10038000A1697A1902EB0900081AA0612078C00659
:1003900002D42046AFF30080002608E0D4E9012112
:1003A0001AF806009047206A401C761C20624E45D1
:1003B000F4DB2078C0060AD52046AFF3008006E0C3
:1003C000D4E9012130209047206A401C2062381E69
:1003D000A7F10107F4DC07E0D4E9012118F80500D2
:1003E0009047206A401C2062281EA5F10105F3DC1D
:1003F0002046AFF300802078000602D50220BDE839
:10040000F0870120FBE70000074B70B50D467B44E9
:1004100000F011F80446284600F020F810B14FF023
:10042000FF3070BD204670BD5309000001694A1CB1
:1004300002610878704700B58FB0CDE90131002125
:10044000059105497944CDE9031011466846FFF747
:100450001DFF0FB000BD0000E5FFFFFF007B00F0B7
:1004600080007047754600F029F8AE4605006946E1
:10047000534620F00700854618B020B5FFF7E6FE8A
:10048000BDE820404FF000064FF000074FF0000895
:100490004FF0000B21F00701AC46ACE8C009ACE816
:1004A000C009ACE8C009ACE8C0098D4670470446F5
:1004B000AFF300802046FFF7B5FE0000004870470C
:1004C00014000020FEE770472DE9FC5F0121782031
:1004D00000F0BCFA0124009402208DF804000020F2
:1004E0008DF806008DF8070003208DF80500694699
:1004F000DB4800F059FA0C220021D94800F092FAAA
:10050000022000906946D64800F04EFA0C220121E4
:10051000D34800F087FA4FF0040BCDF800B06946DD
:10052000CF4800F041FA0C220221CD4800F07AFABF
:10053000082000906946CA4800F036FA0C220321D0
:10054000C74800F06FFA102500956946C44800F0CE
:100550002BFA0C220421C24800F064FA20260096EF
:100560006946BF4800F020FA0C220521BC4800F083
:1005700059FA270300976946B94800F015FA0C228A
:100580001146B74800F04EFA4FF40058CDF80080FD
:100590006946B34800F008FA0C220D21B04800F07B
:1005A00041FA4FF48049CDF800906946AC4800F01C
:1005B000FBF90C220E21AA4800F034FA4FF4004A4D
:1005C000CDF800A06946A64800F0EEF90C220F21F4
:1005D000A34800F027FA00946946A24800F0E4F925
:1005E0000C2200219F4800F01DFA0220009069466D
:1005F0009C4800F0D9F90C2201219A4800F012FA27
:10060000CDF800B06946974800F0CEF90C220221DF
:10061000944800F007FA082000906946914800F0DD
:10062000C3F90C2203218F4800F0FCF900956946BC
:100630008C4800F0B9F90C2204218A4800F0F2F944
:1006400000966946874800F0AFF90C2205218548DD
:1006500000F0E8F9E00200906946834800F0A4F950
:100660000C220B21804800F0DDF9009769467E4896
:1006700000F09AF90C2211467B4800F0D3F9CDF82E
:1006800000806946784800F08FF90C220D217648E9
:1006900000F0C8F9CDF800906946734800F084F97D
:1006A0000C220E21704800F0BDF9CDF800A069467B
:1006B0006D4800F079F90C220F216B4800F0B2F977
:1006C00000946946684800F06FF90C2200216648E2
:1006D00000F0A8F9022000906946634800F064F930
:1006E0000C220121604800F09DF9802000906946AD
:1006F0005E4800F059F90C2207215C4800F092F99D
:10070000200200906946594800F04EF90C22082159
:10071000564800F087F9600200906946534800F09F
:1007200043F90C220921514800F07CF94FF4806B09
:10073000CDF800B069464D4800F036F90C220A2188
:100740004A4800F06FF9E00200906946474800F01F
:100750002BF90C220B21454800F064F900976946FB
:10076000424800F021F90C221146404800F05AF9A5
:10077000CDF8008069463D4800F016F90C220D21A5
:100780003A4800F04FF9CDF800906946374800F03C
:100790000BF90C220E21354800F044F9CDF800A0E9
:1007A0006946324800F000F90C220F212F4800F072
:1007B00039F92002009069462B4800F0F5F80C2228
:1007C0000821294800F02EF9600200906946264869
:1007D00000F0EAF80C220921234800F023F9CDF8B3
:1007E00000B06946204800F0DFF80C220A211E48BC
:1007F00000F018F9CDF800B069461A4800F0D4F8B6
:100800000C220A21174800F00DF900966946164897
:1008100000F0CAF80C220521134800F003F90095F6
:100820006946114800F0C0F80C2204210E4800F07F
:10083000F9F80220009069460C4800F0B5F80C2247
:1008400001210A4800F0EEF800946946074800F0DC
:10085000ABF80C220021054800F0E4F8BDE8FC9F4D
:100860000014024000180240000C02400010024038
:1008700000B597B0FFF728FE012001900A200290F2
:100880000520039000200490059006900790042115
:10089000089109900A9010210B910C900D900E90E8
:1008A0000F9010900902119112901390149001A8CA
:1008B0001590169008A800F003F817B000BD0000CE
:1008C00070B501688900A1F1C0410B68344A13403A
:1008D000D0E901242243D0E903452C432243446953
:1008E000224384692243C4692243046A2243446A3E
:1008F0002243846A2243C46A2243046B22431A437C
:100900000A608168082907D101688900A1F1C04106
:100910000A6842F040020A600168491C8A00A2F19C
:10092000C042116801F04044416BD1E9003543EA0F
:1009300005138D688E892D0245EA06452B430D8AE5
:1009400043EA05530D7D896943EA05630B4323435D
:100950001360C16AB1F5804F08D000686FF0704134
:100960008000A0F1C040C0F8041170BD016889008A
:10097000A1F1C041D1F804210A4B1A40806BD0E9A3
:10098000003443EA041384688589240244EA054458
:100990008069234303431343C1F8043170BD000051
:1009A0008000F7FF0000F0CF2DE9F0410022012781
:1009B0004FF0030C07FA02F50B682B40AB422CD129
:1009C000066853000CFA03F4A64306600E79D0F8CB
:1009D00000809E4046EA080606600E79012E01D08E
:1009E000022E12D18668A64386604E79D0F8088020
:1009F0009E4046EA080686604668AE434660456803
:100A00008E799640B6B235434560C568A543C5604A
:100A1000CC799C40C3681C43C460521C102AC9D3C3
:100A2000BDE8F08110B54B07DB0E9A40C90800EB1A
:100A30008100016A0F249C40A1430162016A1143B5
:100A4000016210BDFEE7FEE770477047054A0029C6
:100A500003D0116801431160704711688143116030
:100A60007047000030380240054A002903D0116861
:100A700001431160704711688143116070470000A5
:100A80004438024070B5244B196801F00C01234C26
:100A900000291ED0661004291DD008291DD004602D
:100AA000196801F0F00109091D4A545C0168E14030
:100AB00041601C6804F4E054A40A145D21FA04F4B3
:100AC00084601B6803F460435B0BD25CD140C1605F
:100AD00070BD0460E4E70660E2E70F4A121F116888
:100AE000C1F38055116801F03F0135B1B6FBF1F15A
:100AF0001468C4F38814614305E0B4FBF1F1146891
:100B0000C4F3881461431268C2F30142521C5200BC
:100B1000B1FBF2F10160C3E7083802400024F400A1
:100B200000000020704700000CB5002201920092E6
:100B30002749086840F4803008604FF4A0430868F3
:100B400000F4003000900198401C0190009810B90A
:100B500001989842F3D10868800302D501200090E3
:100B600000E000920098012831D119484030026815
:100B700042F0805202601748026842F4404202602C
:100B80001348083002680260026842F400420260C2
:100B9000026842F4A0520260021F0F4B13600A6801
:100BA00042F080720A600A689201FCD50B4A40F25A
:100BB00005711160016821F003010160016841F0D5
:100BC000020101600168C1F381010229FAD10CBD63
:100BD000003802400070004008544007003C0240CA
:100BE0007047000010B51248016841F470010160BF
:100BF0001048016841F0010101600E4A00210832ED
:100C0000116002680C4B1A400260031D0B4A1A6007
:100C1000026822F48022026006480C300160FFF76F
:100C200083FF03494FF000608039086010BD000069
:100C300088ED00E000380240FFFFF6FE103000248F
:100C400010B5094C40F22551204600F01BF8002851
:100C500008D0204600F07CF8C1B22046BDE8104024
:100C600000F07AB810BD000000100140002904D047
:100C7000818941F4005181817047818921F40051BB
:100C8000818170470246002012880A4200D001206C
:100C9000704700007FB504460D46208A20F440517D
:100CA000E88808432082A08941F20C618843A98822
:100CB0002A8911436A8902431143A181A08A20F441
:100CC0004071A8890843A0826846FFF7DBFE1E48F2
:100CD000844202D01D48844201D1039800E002986A
:100CE000A189090408D500EBC00101EB00102968B7
:100CF0004900B0FBF1F007E000EBC00101EB001090
:100D000029688900B0FBF1F06422B0FBF2F109011F
:100D10000B096FF018056B4300EB8300A3891D04DA
:100D20004FF0320307D503EBC000B0FBF2F000F048
:100D30000700084306E003EB0010B0FBF2F000F000
:100D40000F00084320817FBD0010014000140140C6
:100D50008088C0F308007047C1F3080181807047A4
:100D6000FEE7704703490A885206FCD5C2B28A8062
:100D700070470000001001404FF0D0444FF4E130C4
:100D800000F01EF8FFF774FDAA202070217803A060
:100D9000FFF770FA03A0FFF76DFAFEE70A703A302A
:100DA00078257800D5E2CAC7D2BBB8F6454550527F
:100DB0004F4DB6C1D0B4CAB5D1E90D0A000000004C
:100DC00070B586B0054601210846FFF73FFE0121B8
:100DD0001020FFF749FE1A4E072209213046FFF77F
:100DE00021FE07220A213046FFF71CFE4FF4C060A7
:100DF000049002208DF814008DF8150000248DF861
:100E0000164001208DF8170004A93046FFF7CCFDED
:100E10000095ADF80440ADF80640ADF80840ADF8D7
:100E20000C400C20ADF80A00064C69462046FFF73E
:100E300031FF01212046FFF719FF06B070BD000009
:100E400000000240001001404FF04070E1EE100A37
:100E500070473031323334353637383941424344C4
:100E60004546403058003031323334353637383922
:100E70006162636465664030780000009C0E000883
:100E80000000002014000000C4010008B00E00089B
:100E90001400002064060000E001000800000000CB
:100EA0000102030401020304060708090000000010
:040000050800018965
:00000001FF
