:020000040800F2
:10000000F8190020290200081B060008C70500088F
:1000100019060008DB020008C909000800000000FA
:10002000000000000000000000000000F9060008C9
:1000300085040008000000001D060008B507000840
:10004000430200084302000843020008430200087C
:10005000430200084302000843020008430200086C
:10006000430200084302000843020008430200085C
:10007000430200084302000843020008430200084C
:10008000430200084302000843020008430200083C
:10009000430200084302000843020008430200082C
:1000A000430200084302000843020008430200081C
:1000B000430200084302000843020008430200080C
:1000C00043020008430200084302000843020008FC
:1000D0004302000815080008430200084302000814
:1000E00043020008430200084302000843020008DC
:1000F00043020008430200084302000843020008CC
:1001000043020008430200084302000843020008BB
:1001100043020008430200084302000843020008AB
:10012000430200084302000843020008430200089B
:10013000430200084302000843020008430200088B
:10014000430200084302000843020008430200087B
:10015000430200084302000843020008430200086B
:10016000430200084302000843020008430200085B
:10017000430200084302000843020008430200084B
:10018000430200084302000800F002F800F03CF8C7
:100190000AA090E8000C82448344AAF10107DA45E2
:1001A00001D100F031F8AFF2090EBAE80F0013F0F8
:1001B000010F18BFFB1A43F0010318478C08000019
:1001C000AC080000103A24BF78C878C1FAD85207AA
:1001D00024BF30C830C144BF04680C6070470000C1
:1001E0000023002400250026103A28BF78C1FBD840
:1001F000520728BF30C148BF0B6070471FB500F0E1
:100200001DFC1FBD10B510BD00F031F81146FFF701
:10021000F5FF00F0DBFB00F04FF803B4FFF7F2FF4F
:1002200003BC00F053F80000094880470948004724
:10023000FEE7FEE7FEE7FEE7FEE7FEE7FEE7FEE796
:10024000FEE7FEE704480549054A064B70470000F3
:10025000B907000889010008F8130020F8190020E8
:10026000F8150020F8150020704770477047754654
:1002700000F028F8AE4605006946534620F0070016
:10028000854618B020B5FFF7DDFFBDE820404FF0F0
:1002900000064FF000074FF000084FF0000B21F070
:1002A0000701AC46ACE8C009ACE8C009ACE8C0093D
:1002B000ACE8C0098D4670470446AFF30080204685
:1002C000FFF7ABFF00487047981300200149182042
:1002D000ABBEFEE7260002007047FEE7002904D00F
:1002E000016841F0010101607047016821F00101DE
:1002F000016070472DE9F043016821F001010160C0
:100300000021016041608160C16001612121416182
:100310003E493E4A10394FF03D08904203D1C1F8A2
:100320000880BDE8F083394A4FF474651832904272
:1003300001D18D60F5E7354A4FF4741630329042A2
:1003400001D18E60EDE7314A4FF074674832904238
:1003500001D18F60E5E72D4B2D4A6033984201D1E2
:10036000CA60DEE7294C2B4B7834A04201D1CB6028
:10037000D7E7DFF898C0284C0CF1900C604501D10C
:10038000CC60CEE7DFF884904FF03D5C09F1A8091E
:10039000484502D1C1F80CC0C3E72049DFF87C9082
:1003A0000839484502D1C1F80080BAE7DFF86C800F
:1003B00008F11808404501D10D60B2E7174D3035FE
:1003C000A84201D10E60ACE7144D4835A84201D1D6
:1003D0000F60A6E7114D11496035091FA84201D1F0
:1003E0000A609EE70D4A7832904201D10B6098E78F
:1003F0000A4A9032904201D10C6092E7074AA83233
:1004000090428ED1C1F800C08BE70000106002401E
:100410003D000020400F002000003D2010640240FD
:10042000014600200968C90700D00120704700007C
:1004300030B50368124A1340CC680A682243D1E9F8
:1004400005452C432243CC6922430C6A22434C6A63
:1004500022438C6A22434C6B22438C6B22431A4307
:100460000260426922F00703D1E90B2422431A43B8
:1004700042610A6942604A6882608968C16030BD31
:100480003F801CF07047000030B587B0012108465E
:1004900000F0C6F80121102000F0D0F81A4D072214
:1004A0000921284600F07BF807220A21284600F09F
:1004B00076F84FF4C061059102218DF818108DF87F
:1004C000191000248DF81A4001218DF81B1005A980
:1004D000284600F026F84FF4E1300190ADF80840CE
:1004E000ADF80A40ADF80C40ADF810400C20ADF866
:1004F0000E00064C01A9204600F000FA012120461A
:1005000000F09EF907B030BD00000240001001402D
:1005100001B502E00098401E009000980028F9D133
:1005200008BD2DE9F041002201274FF0030C07FA26
:1005300002F50B682B40AB422CD1066853000CFA35
:1005400003F4A64306600E79D0F800809E4046EA88
:10055000080606600E79012E01D0022E12D186689F
:10056000A64386604E79D0F808809E4046EA080689
:1005700086604668AE43466045688E799640B6B25E
:1005800035434560C568A543C560CC799C40C368C8
:100590001C43C460521C102AC9D3BDE8F08110B5B9
:1005A0004B07DB0E9A40C90800EB8100016A0F245B
:1005B0009C40A1430162016A1143016210BD418365
:1005C000704701837047FEE77CB50121202000F0D1
:1005D00027F84FF40075009501218DF804100020D4
:1005E0008DF806008DF807108DF80500094E694654
:1005F0003046FFF796FF6C00009469463046FFF7DF
:1006000090FF29463046FFF7DCFF21463046FFF7D2
:10061000D8FF7CBD00140240FEE770477047000021
:10062000054A002903D01168014311607047116821
:10063000814311607047000030380240054A0029AC
:1006400003D0116801431160704711688143116044
:10065000704700004438024070B5244B196801F01F
:100660000C01234C00291ED0661004291DD0082936
:100670001DD00460196801F0F00109091D4A545C9D
:100680000168E14041601C6804F4E054A40A145D70
:1006900021FA04F484601B6803F460435B0BD25CB2
:1006A000D140C16070BD0460E4E70660E2E70F4A34
:1006B000121F1168C1F38055116801F03F0135B177
:1006C000B6FBF1F11468C4F38814614305E0B4FB90
:1006D000F1F11468C4F3881461431268C2F3014253
:1006E000521C5200B1FBF2F10160C3E7083802402E
:1006F0000024F40000000020704700000CB5002228
:10070000019200922749086840F4803008604FF455
:10071000A043086800F4003000900198401C01904C
:10072000009810B901989842F3D10868800302D567
:100730000120009000E000920098012831D1194872
:100740004030026842F0805202601748026842F46A
:10075000404202601348083002680260026842F4B6
:1007600000420260026842F4A0520260021F0F4B76
:1007700013600A6842F080720A600A689201FCD530
:100780000B4A40F205711160016821F0030101601C
:10079000016841F0020101600168C1F38101022991
:1007A000FAD10CBD003802400070004008544007E8
:1007B000003C02407047000010B51248016841F447
:1007C000700101601048016841F0010101600E4AAA
:1007D00000210832116002680C4B1A400260031DB0
:1007E0000B4A1A60026822F48022026006480C302C
:1007F0000160FFF783FF03494FF000608039086014
:1008000010BD000088ED00E000380240FFFFF6FE5A
:100810001030002410B5094C40F22551204600F05C
:1008200065F8002808D0204600F0C6F8C1B220467E
:10083000BDE8104000F0C4B810BD00000010014039
:10084000002904D0818941F4005181817047818958
:1008500021F4005181817047002A03D0828A0A4323
:1008600082827047828A8A438282704710B590B034
:1008700001218805FFF7D4FE194C2046FFF73AFD09
:100880002046FFF7CDFD0028FAD14FF0006001901F
:1008900014480290144803904020049041F288309C
:1008A0000590002006904FF4806107910890099010
:1008B00089100A9109020B910C9003210D910E9061
:1008C0000F9001A92046FFF7B3FD01212046FFF755
:1008D00005FD2046FFF7A4FD0128FAD110B010BD98
:1008E000B8640240041001401000002002460020BD
:1008F00012880A4200D00120704700007FB50446EC
:100900000D46208A20F44051E88808432082A089BF
:1009100041F20C618843A9882A8911436A890243FC
:100920001143A181A08A20F44071A8890843A082C4
:100930006846FFF791FE1E48844202D01D4884425B
:1009400001D1039800E00298A189090408D500EBC1
:10095000C00101EB001029684900B0FBF1F007E08D
:1009600000EBC00101EB001029688900B0FBF1F039
:100970006422B0FBF2F109010B096FF018056B431B
:1009800000EB8300A3891D044FF0320307D503EB6E
:10099000C000B0FBF2F000F00700084306E003EBF4
:1009A0000010B0FBF2F000F00F00084320817FBD83
:1009B00000100140001401408088C0F30800704717
:1009C000C1F3080181807047FEE70000FFF75CFD7E
:1009D000FFF74CFFFFF7F8FD0020154A412141F2D7
:1009E00088331154401C80B29842FAD301228021EE
:1009F0001048FFF731FF4FF400740F4D66006FF0A1
:100A00007F4721462846FFF7DAFD31462846FFF7A3
:100A1000D6FD3846FFF77CFD21462846FFF7D1FD7D
:100A200031462846FFF7CDFD3846FFF771FDE8E770
:100A30001000002000100140001402404FF04070F0
:100A4000E1EE100A70470000680A0008000000206C
:100A500010000000C4010008780A000810000020FF
:100A6000E8190000E0010008000000000102030492
:080A7000010203040607080956
:040000050800018965
:00000001FF
