:020000040800F2
:10000000000400209D010008ED010008E90100083E
:10001000EB010008E50100080D03000800000000E6
:10002000000000000000000000000000F1010008D6
:10003000E701000800000000EF010008AD02000821
:10004000B7010008B7010008B7010008B7010008B0
:10005000B7010008B7010008B7010008B7010008A0
:10006000B7010008B7010008B7010008B701000890
:10007000B7010008B7010008B7010008B701000880
:10008000B7010008B7010008B7010008B701000870
:10009000B7010008B7010008B7010008B701000860
:1000A000B7010008B7010008B7010008B701000850
:1000B000B7010008B7010008B7010008B701000840
:1000C000B7010008B7010008B7010008B701000830
:1000D000B7010008B7010008B7010008B701000820
:1000E000B7010008B7010008B7010008B701000810
:1000F000B7010008B7010008B7010008B701000800
:10010000B7010008B7010008B7010008B7010008EF
:10011000B7010008B7010008B7010008B7010008DF
:10012000B7010008B7010008B7010008B7010008CF
:10013000B7010008B7010008B7010008B7010008BF
:10014000B7010008B7010008B7010008B7010008AF
:10015000B7010008B7010008B7010008B70100089F
:10016000B7010008B7010008B7010008B70100088F
:10017000B7010008B7010008B7010008B70100087F
:10018000B7010008B7010008DFF80CD000F018F83C
:10019000004800472D03000800040020064880475F
:1001A00006480047FEE7FEE7FEE7FEE7FEE7FEE75C
:1001B000FEE7FEE7FEE7FEE7B1020008890100085E
:1001C000064C074D06E0E06840F0010394E80700A4
:1001D00098471034AC42F6D3FFF7DAFF300300083B
:1001E00040030008FEE77047FEE7FEE770477047F0
:1001F000704700000CB50022019200922749086860
:1002000040F4803008604FF4A043086800F40030E8
:1002100000900198401C0190009810B901989842F4
:10022000F3D10868800302D50120009000E000921D
:100230000098012831D119484030026842F08052BC
:1002400002601748026842F44042026013480830D6
:1002500002680260026842F400420260026842F4EE
:10026000A0520260021F0F4B13600A6842F08072B6
:100270000A600A689201FCD50B4A40F205711160D0
:10028000016821F003010160016841F00201016091
:100290000168C1F381010229FAD10CBD0038024086
:1002A0000070004019544007003C024070470000B5
:1002B00010B51248016841F47001016010480168EE
:1002C00041F0010101600E4A00210832116002680C
:1002D0000C4B1A400260031D0B4A1A60026822F49C
:1002E0008022026006480C300160FFF783FF03495B
:1002F0004FF000608039086010BD000088ED00E01C
:1003000000380240FFFFF6FE10300024FEE702E056
:1003100008C8121F08C1002AFAD170477047002090
:1003200001E001C1121F002AFBD17047FEE7000067
:100330004003000800000020000400001E03000825
:040000050800018965
:00000001FF
