:020000040800F2
:100000007826002039020008110700080D070008B3
:100010000F07000865060008010E00080000000038
:10002000000000000000000000000000C50B0008F8
:10003000670600080000000013070008810C000894
:10004000530200085302000853020008530200083C
:10005000530200085302000853020008530200082C
:10006000530200085302000853020008530200081C
:10007000530200085302000853020008530200080C
:1000800053020008530200085302000853020008FC
:1000900053020008530200085302000853020008EC
:1000A00053020008530200085302000853020008DC
:1000B00053020008530200085302000853020008CC
:1000C00053020008530200085302000853020008BC
:1000D00053020008E10C0008530200085302000814
:1000E000530200085302000853020008530200089C
:1000F000530200085302000853020008530200088C
:10010000530200085302000853020008530200087B
:10011000530200085302000853020008530200086B
:10012000530200085302000853020008530200085B
:10013000530200085302000853020008530200084B
:10014000530200085302000853020008530200083B
:10015000530200085302000853020008530200082B
:10016000530200085302000853020008530200081B
:10017000530200085302000853020008530200080B
:10018000530200085302000800F002F800F044F89F
:100190000AA090E8000C82448344AAF10107DA45E2
:1001A00001D100F039F8AFF2090EBAE80F0013F0F0
:1001B000010F18BFFB1A43F001031847900E00000F
:1001C000B00E0000103A24BF78C878C1FAD85207A0
:1001D00024BF30C830C144BF04680C6070470000C1
:1001E0000023002400250026103A28BF78C1FBD840
:1001F000520728BF30C148BF0B607047642900F028
:100200007180782900F0AA80002070471FB500F0A7
:10021000FBFE1FBD10B510BD00F0F4F91146FFF74D
:10022000F5FF00F001FE00F012FA03B4FFF7F2FF51
:1002300003BC00F0EDFD0000094880470948004775
:10024000FEE7FEE7FEE7FEE7FEE7FEE7FEE7FEE786
:10025000FEE7FEE704480549054A064B70470000E3
:10026000850C0008890100087820002078260020ED
:100270007822002078220020704700000FB4044943
:1002800010B503AA029800F08FF910BC5DF814FBBA
:100290001000002070B5044685690068C10601D5CC
:1002A000302600E02026C00707D070BDD4E9012128
:1002B00030469047206A401C20626D1EF6D570BD06
:1002C00070B5044685690078C00707D170BDD4E9D0
:1002D000012120209047206A401C20626D1EF6D527
:1002E00070BD00002DE9F041064600241068752914
:1002F000314616A510D0AFF30080002802DA404244
:1003000013A507E031688A0701D512A502E0490765
:1003100004D511A5012401E0AFF3008000210A22D9
:1003200006F1240709E0B0FBF2FCB0FBF2F302FB9C
:100330001C00303078541846491C0028F3D123465D
:100340002A463046BDE8F04100F0D4B80000000075
:100350002D0000002B0000002000000070B50446B6
:100360000D4621461068AFF300802188090502D5AB
:100370000F4A7A4402E00E4A7A440E32002104F118
:10038000240305E000F00F060009965D5E54491C49
:100390000028F7D120780023000704D5702D02D063
:1003A00009B1022311322046BDE8704000F0A2B826
:1003B0009C0C00002DE9F05F894604464FF0000ACE
:1003C000DFF824B1FB44C0F820A02046E16888474C
:1003D00000287DD0252806D0D4E901219047206A45
:1003E000401C2062F1E700255F462046E16888470F
:1003F0002028064607DB312E05D2B81910F8200C4C
:1004000008B10543F1E7A80701D525F00405C4F8B4
:100410001CA00027C4F818A02A2E09D0304600F0EE
:10042000F0FC38B304EB8708303EC8F8186019E0D8
:1004300059F8041B204604EB87029161E168884764
:10044000012F064618D1E069002820DA25F02005A2
:100450001DE0D8F8180000EB800006EB40003038B3
:10046000C8F818002046E1688847064600F0C9FC35
:100470000028EED1012F0AD02E2E08D12046E168A7
:1004800088477F1C0646022F45F02005C4DBA06983
:10049000002803DA404245F00105A061E80701D0D9
:1004A00025F01005A6B1A6F14100192802D8203682
:1004B00045F400654A463146204625604D46FFF723
:1004C0009DFE60B1012807D0ED1D25F0070000E07A
:1004D00007E000F1080978E705F1040975E73046FF
:1004E0007AE7206ABDE8F09F720C00007047704701
:1004F000704770472DE9F0470D46994692460446ED
:1005000000F124080168880604D5E06921F0100193
:10051000216000E00120A84201DD471B00E0002728
:10052000A1697A1902EB0900081AA0612078C006B7
:1005300002D42046FFF7AEFE002608E0D4E90121F0
:100540001AF806009047206A401C761C20624E452F
:10055000F4DB2078C0060AD52046FFF79BFE06E0B4
:10056000D4E9012130209047206A401C2062381EC7
:10057000A7F10107F4DC07E0D4E9012118F8050030
:100580009047206A401C2062281EA5F10105F3DC7B
:100590002046FFF795FE2078000602D50220BDE830
:1005A000F0870120FBE70000074B70B50D467B4448
:1005B00000F011F80446284600F020F810B14FF082
:1005C000FF3070BD204670BD6308000001694A1C01
:1005D00002610878704700B58FB0CDE90131002184
:1005E000059105497944CDE9031011466846FFF7A6
:1005F000E1FE0FB000BD0000E5FFFFFF007B00F053
:1006000080007047754600F029F8AE46050069463F
:10061000534620F00700854618B020B5FFF71AFEB4
:10062000BDE820404FF000064FF000074FF00008F3
:100630004FF0000B21F00701AC46ACE8C009ACE874
:10064000C009ACE8C009ACE8C0098D467047044653
:10065000AFF300802046FFF7E8FD00000048704738
:1006600018200020FEE770472DE9F0410022012705
:100670004FF0030C07FA02F50B682B40AB422CD16C
:10068000066853000CFA03F4A64306600E79D0F80E
:1006900000809E4046EA080606600E79012E01D0D1
:1006A000022E12D18668A64386604E79D0F8088063
:1006B0009E4046EA080686604668AE434660456846
:1006C0008E799640B6B235434560C568A543C5608E
:1006D000CC799C40C3681C43C460521C102AC9D307
:1006E000BDE8F08110B54B07DB0E9A40C90800EB5E
:1006F0008100016A0F249C40A1430162016A1143F9
:10070000016210BD4183704701837047FEE7FEE739
:1007100070477047054A002903D0116801431160F2
:100720007047116881431160704700003038024003
:10073000054A002903D01168014311607047116810
:1007400081431160704700004438024070B5244B6B
:10075000196801F00C01234C00291ED066100429F1
:100760001DD008291DD00460196801F0F0010909A5
:100770001D4A545C0168E14041601C6804F4E05487
:10078000A40A145D21FA04F484601B6803F4604336
:100790005B0BD25CD140C16070BD0460E4E70660D1
:1007A000E2E70F4A121F1168C1F38055116801F08A
:1007B0003F0135B1B6FBF1F11468C4F3881461430D
:1007C00005E0B4FBF1F11468C4F3881461431268C6
:1007D000C2F30142521C5200B1FBF2F10160C3E7C7
:1007E000083802400024F40000000020002904D052
:1007F000018841F0400101807047018821F04001EB
:10080000018070472DE9F0410746184C4FF48055A0
:100810002560174E09E02068421E226005D20120A3
:1008200000F0B0F9C0B2BDE8F0810221304600F01E
:100830005BF90028EFD03946304600F05EF92560BC
:1008400008E021684A1E226004D2022000F09AF9D2
:10085000C0B2E8E70121304600F046F90028F0D0A8
:10086000304600F048F9C0B2DDE700001400002077
:100870000030014070B5044600F0DAF80E4E4FF437
:10088000804529463046FFF73DFF2020FFF7BAFF9D
:10089000C4F30740FFF7B6FFC4F30720FFF7B2FF2A
:1008A000E0B2FFF7AFFF29463046FFF72DFFBDE866
:1008B000704000F097B800000004024010B500F04E
:1008C000CBF8BDE8104000F037B900002DE9F04743
:1008D00004460E46174600254FF48048DFF868901E
:1008E00026E06D1C012D04D0E8B2012801D02005BE
:1008F00019D141464846FFF707FF00F073F800F0B2
:1009000097F841464846FFF7FDFE0220FFF77AFFC1
:10091000C4F30740FFF776FFC4F30720FFF772FF29
:10092000E0B2FFF76FFF3078FFF76CFF761C641CB6
:100930007F1E781CD5D141464846FFF7E5FEBDE84D
:10094000F04700F04FB80000000402402DE9F041EC
:1009500080460C461546124F4FF4804631463846C5
:10096000FFF7D0FE0320FFF74DFFC8F30740FFF766
:1009700049FFC8F30720FFF745FF08F0FF00FFF726
:1009800041FF04E0FF20FFF73DFF04F8010B6D1E5F
:10099000681CF7D131463846BDE8F041FFF7B4BED8
:1009A0000004024070B50E4D4FF4804421462846A5
:1009B000FFF7A8FEAB20FFF725FFFF20FFF722FF80
:1009C000FF20FFF71FFFFF20FFF71CFFFF20FFF7AF
:1009D00019FF064621462846FFF796FE304670BDB1
:1009E0000004024070B5104E4FF480452946304651
:1009F000FFF788FE0520FFF705FF0C4C4FF4204061
:100A00002060FF20FFF7FEFEC00706D02068421ED0
:100A10002260F6D2032000F0B5F829463046BDE842
:100A20007040FFF771BE0000000402401400002077
:100A300070B5084D4FF4804421462846FFF762FE0A
:100A40000620FFF7DFFE21462846BDE87040FFF78D
:100A50005BBE0000000402407CB501210803FFF7E3
:100A600067FE01210220FFF755FE1E4E05220321DD
:100A70003046FFF737FE052211463046FFF732FEBB
:100A8000052204213046FFF72DFE082000900225A4
:100A90008DF804508DF8055000248DF806408DF82F
:100AA000074069463046FFF7DFFD20200090694689
:100AB0003046FFF7D9FD1020009069463046FFF719
:100AC000D3FD6803009001208DF804008DF80550D7
:100AD0008DF806408DF8074069463046FFF7C4FDA3
:100AE0007CBD0000000402400246002012890A4238
:100AF00000D001207047808970478181704730B5F0
:100B0000028802F441530A884C88CD8822438C889D
:100B10002C4322430C8922434C8922438C89224353
:100B2000CC8922431A430280828B22F400628283A2
:100B3000098A018230BD000010B586B00020ADF8F2
:100B40001000ADF80A00ADF80C00ADF81400ADF8D7
:100B50000800ADF804004FF48271ADF80610ADF84E
:100B600012004FF40070ADF80E00054C01A92046AC
:100B7000FFF7C5FF01212046FFF738FE06B010BD84
:100B80000030014010B5014602A0FFF777FB0020BE
:100B900010BD00003C3C2D464C4153482D4552525F
:100BA0004F522D3E3E53504920B5C8B4FDB3ACCA98
:100BB000B1216572726F72436F6465203D202564B8
:100BC0000A000000704700000CB50022019200925C
:100BD0002749086840F4803008604FF4A043086853
:100BE00000F4003000900198401C0190009810B96A
:100BF00001989842F3D10868800302D50120009043
:100C000000E000920098012831D119484030026874
:100C100042F0805202601748026842F4404202608B
:100C20001348083002680260026842F40042026021
:100C3000026842F4A0520260021F0F4B13600A6860
:100C400042F080720A600A689201FCD50B4A40F2B9
:100C500005711160016821F003010160016841F034
:100C6000020101600168C1F381010229FAD10CBDC2
:100C7000003802400070004008544007003C024029
:100C80007047000010B51248016841F4700101601E
:100C90001048016841F0010101600E4A002108324C
:100CA000116002680C4B1A400260031D0B4A1A6067
:100CB000026822F48022026006480C300160FFF7CF
:100CC00083FF03494FF000608039086010BD0000C9
:100CD00088ED00E000380240FFFFF6FE10300024EF
:100CE00010B5094C40F22551204600F01BF80028B1
:100CF00008D0204600F07CF8C1B22046BDE8104084
:100D000000F07AB810BD000000100140002904D0A6
:100D1000818941F4005181817047818921F400511A
:100D2000818170470246002012880A4200D00120CB
:100D3000704700007FB504460D46208A20F44051DC
:100D4000E88808432082A08941F20C618843A98881
:100D50002A8911436A8902431143A181A08A20F4A0
:100D60004071A8890843A0826846FFF7EFFC1E483F
:100D7000844202D01D48844201D1039800E00298C9
:100D8000A189090408D500EBC00101EB0010296816
:100D90004900B0FBF1F007E000EBC00101EB0010EF
:100DA00029688900B0FBF1F06422B0FBF2F109017F
:100DB0000B096FF018056B4300EB8300A3891D043A
:100DC0004FF0320307D503EBC000B0FBF2F000F0A8
:100DD0000700084306E003EB0010B0FBF2F000F060
:100DE0000F00084320817FBD001001400014014026
:100DF0008088C0F308007047C1F308018180704704
:100E0000FEE730380A2801D20120704700207047E1
:100E10007047000003490A885206FCD5C2B28A8096
:100E2000704700000010014000244FF4E13000F052
:100E3000A7F828A0FFF722FAFFF740FDFFF7B2FD61
:100E400001462BA0FFF71AFA2EA0FFF717FA002091
:100E5000FFF710FD4FF480563046FFF70BFD2CA036
:100E6000FFF70CFA32462D490020FFF76FFD2B4D9E
:100E7000285DFF2802D02AA0FFF700FA641CB442C4
:100E8000F6D32BA0FFF7FAF92DA0FFF7F7F9002012
:100E90002E4A77211154401CB042FBD332462B49D5
:100EA0000A20FFF713FD2AA0FFF7E8F932461B4995
:100EB0000A20FFF74BFD29A0FFF7E0F900242BA043
:100EC000295DFFF7DBF9641CB442F8D329A0FFF7D2
:100ED000D5F9FEE7D5E2CAC7D2BBB8F620464C41E9
:100EE000534820B6C1D0B4CAB5D1E90D0A000000FC
:100EF000666C617368206964203D20307825780D28
:100F00000A000000B2C1B3FDBFAACABC0D0A0000AE
:100F1000B2C1B3FDCDEAB3C90D0A0000180000202C
:100F2000B2C1B3FDD0A3D1E9CAA7B0DC0D0A00005D
:100F3000B2C1B3FDD0A3D1E9CDEAB3C90D0A000017
:100F4000BFAACABCD0B4C8EB0D0A0000181000201C
:100F5000D0B4C8EBCDEAB3C90D0A0000B6C1C8A130
:100F6000B5BDB5C4CAFDBEDD3A0D0A0030782530E6
:100F700032782000B6C1C8A1CDEAB3C90D0A00007D
:100F800070B586B0054601210846FFF7C3FB012175
:100F90001020FFF7CDFB1A4E072209213046FFF73C
:100FA000A1FB07220A213046FFF79CFB4FF4C060EB
:100FB000049002208DF814008DF8150000248DF89F
:100FC000164001208DF8170004A93046FFF74CFBAE
:100FD0000095ADF80440ADF80640ADF80840ADF816
:100FE0000C400C20ADF80A00064C69462046FFF77D
:100FF000A1FE01212046FFF789FE06B070BD00006A
:1010000000000240001001404FF04070E1EE100A75
:101010007047303132333435363738394142434402
:101020004546403058003031323334353637383960
:101030006162636465664030780004000008000067
:101040000000000000020001000010006C10000809
:101050000000002018000000C401000884100008EF
:101060001800002060260000E001000800000000D9
:10107000010203040102030406070809000000003E
:0410800000A00000CC
:040000050800018965
:00000001FF
