:020000040800F2
:10000000800400209D010008CF0500087905000844
:10001000CD050008030200080D07000800000000DD
:10002000000000000000000000000000F1050008D2
:10003000E104000800000000D1050008AD0600083A
:10004000B7010008B7010008B7010008B7010008B0
:10005000B7010008B7010008B7010008B7010008A0
:10006000B7010008B7010008B7010008B701000890
:10007000B7010008B7010008B7010008B701000880
:10008000B7010008B7010008B7010008B701000870
:10009000B7010008B7010008B7010008B701000860
:1000A000B7010008B7010008B7010008B701000850
:1000B000B7010008B7010008B7010008B701000840
:1000C000B7010008B7010008B7010008B701000830
:1000D000B7010008B7010008B7010008B701000820
:1000E000B7010008B7010008B7010008B701000810
:1000F000B7010008B7010008B7010008B701000800
:10010000B7010008B7010008B7010008B7010008EF
:10011000B7010008B7010008B7010008B7010008DF
:10012000B7010008B7010008B7010008B7010008CF
:10013000B7010008B7010008B7010008B7010008BF
:10014000B7010008B7010008B7010008B7010008AF
:10015000B7010008B7010008B7010008B70100089F
:10016000B7010008B7010008B7010008B70100088F
:10017000B7010008B7010008B7010008B70100087F
:10018000B7010008B7010008DFF80CD000F018F83C
:10019000004800472D0700088004002006488047DB
:1001A00006480047FEE7FEE7FEE7FEE7FEE7FEE75C
:1001B000FEE7FEE7FEE7FEE7B1060008890100085A
:1001C000064C074D06E0E06840F0010394E80700A4
:1001D00098471034AC42F6D3FFF7DAFF1408000852
:1001E0002408000810B507E003680C68A34201D09A
:1001F000002010BD001D091D521E92B2F4D2012034
:1002000010BDFEE7074A904201D2074801E00548C9
:100210001038064A8B0001EA020101D5C16070471F
:100220008160704710640240006002407D0F7D0FC6
:10023000002904D0016841F00101016070470168A4
:1002400021F0010101607047F0B591B042F21070E9
:1002500001900121880500F0BDF92B4E304600F0D9
:100260005DF8304600F0F0F80028FAD102902749F6
:1002700003912749049180210591202106910C01C9
:1002800007944D010895C901099189000A910B90C5
:10029000C9000C910D9003210E910F90109002A9AE
:1002A000304600F0F3F81B493046FFF7ABFF012161
:1002B0003046FFF7BDFF304600F0C6F8012803D0F6
:1002C000019A531E0193F6D20198002819D1124EBB
:1002D0006FF07F472146304600F04AF92946304604
:1002E00000F046F9384600F0FCF82146304600F0B0
:1002F00041F92946304600F03DF9384600F0F1F862
:10030000E8E711B0F0BD0000106402409407000857
:100310000000002020000010001402402DE9F043EE
:10032000016821F0010101600021016041608160EC
:10033000C1600161212141613E493E4A10394FF0BF
:100340003D08904203D1C1F80880BDE8F083394AE6
:100350004FF474651832904201D18D60F5E7354A4B
:100360004FF474163032904201D18E60EDE7314A7D
:100370004FF074674832904201D18F60E5E72D4B12
:100380002D4A6033984201D1CA60DEE7294C2B4BDD
:100390007834A04201D1CB60D7E7DFF898C0284C71
:1003A0000CF1900C604501D1CC60CEE7DFF8849071
:1003B0004FF03D5C09F1A809484502D1C1F80CC0D5
:1003C000C3E72049DFF87C900839484502D1C1F8DD
:1003D0000080BAE7DFF86C8008F11808404501D1C9
:1003E0000D60B2E7174D3035A84201D10E60ACE781
:1003F000144D4835A84201D10F60A6E7114D1149AF
:100400006035091FA84201D10A609EE70D4A783283
:10041000904201D10B6098E70A4A9032904201D194
:100420000C6092E7074AA83290428ED1C1F800C012
:100430008BE70000106002403D000020400F0020CC
:1004400000003D2010640240014600200968C907F1
:1004500000D001207047000002460020084B9A425D
:1004600001D2084A01E0064A103A8B0001D55268D1
:1004700000E01268044B1A400A4200D00120704785
:1004800010640240006002407D0F7D0F30B50368AC
:10049000124A1340CC680A682243D1E905452C432F
:1004A0002243CC6922430C6A22434C6A22438C6A61
:1004B00022434C6B22438C6B22431A4302604269F5
:1004C00022F00703D1E90B2422431A4342610A694F
:1004D00042604A6882608968C16030BD3F801CF01C
:1004E000704701B502E00098401E00900098002877
:1004F000F9D108BD2DE9F041002201274FF0030C8E
:1005000007FA02F50B682B40AB422CD1066853006A
:100510000CFA03F4A64306600E79D0F800809E40E2
:1005200046EA080606600E79012E01D0022E12D18D
:100530008668A64386604E79D0F808809E4046EAD9
:10054000080686604668AE43466045688E799640E8
:10055000B6B235434560C568A543C560CC799C40BB
:10056000C3681C43C460521C102AC9D3BDE8F08183
:100570004183704701837047FEE700007CB501218D
:10058000202000F027F84FF40075009501218DF828
:10059000041000208DF806008DF807108DF8050076
:1005A000094E69463046FFF7A5FF6C000094694686
:1005B0003046FFF79FFF29463046FFF7DBFF214615
:1005C0003046FFF7D7FF7CBD00140240FEE77047BE
:1005D00070470000054A002903D0116801431160EB
:1005E0007047116881431160704700003038024045
:1005F000704700000CB5002201920092274908685C
:1006000040F4803008604FF4A043086800F40030E4
:1006100000900198401C0190009810B901989842F0
:10062000F3D10868800302D50120009000E0009219
:100630000098012831D119484030026842F08052B8
:1006400002601748026842F44042026013480830D2
:1006500002680260026842F400420260026842F4EA
:10066000A0520260021F0F4B13600A6842F08072B2
:100670000A600A689201FCD50B4A40F205711160CC
:10068000016821F003010160016841F0020101608D
:100690000168C1F381010229FAD10CBD0038024082
:1006A0000070004008544007003C024070470000C2
:1006B00010B51248016841F47001016010480168EA
:1006C00041F0010101600E4A002108321160026808
:1006D0000C4B1A400260031D0B4A1A60026822F498
:1006E0008022026006480C300160FFF783FF034957
:1006F0004FF000608039086010BD000088ED00E018
:1007000000380240FFFFF6FE10300024FEE702E052
:1007100008C8121F08C1002AFAD17047704700208C
:1007200001E001C1121F002AFBD17047FFF726FF2D
:100730006FF07F40FFF7D5FEFFF786FD104C114D9F
:1007400021462846FFF788FE0028F9D020220E49CE
:100750000E48FFF747FD4FF400710D4C4D0038B1C6
:100760002046FFF707FF29462046FFF701FFFEE777
:100770002046FFF7FDFE29462046FFF7FBFEF6E781
:1007800020000010106402400000002094070008C0
:100790000014024004030201080706050C0B0A09B5
:1007A000100F0E0D14131211181716151C1B1A1901
:1007B000201F1E1D24232221282726252C2B2A29F1
:1007C000302F2E2D34333231383736353C3B3A39E1
:1007D000403F3E3D44434241484746454C4B4A49D1
:1007E000504F4E4D54535251585756555C5B5A59C1
:1007F000605F5E5D64636261686766656C6B6A69B1
:10080000706F6E6D74737271787776757C7B7A79A0
:10081000807F7E7D24080008000000208004000006
:040820001E070008A7
:040000050800018965
:00000001FF
