:020000040800F2
:1000000060070020B90400088D0200088F02000874
:1000100093020008970200089B02000800000000FD
:100020000000000000000000000000009F02000827
:10003000A102000800000000A3020008A5020008B9
:10004000D3040008D3040008D3040008D304000834
:10005000D3040008D3040008D3040008D304000824
:10006000D3040008D3040008D3040008D304000814
:10007000D3040008D3040008D3040008D304000804
:10008000D3040008D3040008D3040008D3040008F4
:10009000D3040008D3040008D3040008D3040008E4
:1000A000D3040008D3040008D3040008D3040008D4
:1000B000D3040008D3040008D3040008D3040008C4
:1000C000D3040008D3040008D3040008D3040008B4
:1000D000D3040008A5190008D3040008D3040008BD
:1000E000D3040008D3040008D3040008D304000894
:1000F000D3040008D3040008D3040008D304000884
:10010000D3040008D3040008D3040008D304000873
:10011000D3040008D3040008D3040008D304000863
:10012000D3040008D3040008D3040008D304000853
:10013000D3040008D3040008D3040008D304000843
:10014000D3040008D3040008D3040008D304000833
:10015000D3040008D3040008D3040008D304000823
:10016000D3040008D3040008D3040008D304000813
:10017000D3040008D3040008D3040008D304000803
:10018000D3040008D304000800F002F800F03CF8A3
:100190000AA090E8000C82448344AAF10107DA45E2
:1001A00001D100F031F8AFF2090EBAE80F0013F0F8
:1001B000010F18BFFB1A43F001031847E0220000AB
:1001C00000230000103A24BF78C878C1FAD852073B
:1001D00024BF30C830C144BF04680C6070470000C1
:1001E0000023002400250026103A28BF78C1FBD840
:1001F000520728BF30C148BF0B6070471FB502F0DF
:1002000039F91FBD10B510BD02F0FDF81146FFF71A
:10021000F5FF00F023F802F01BF903B4FFF7F2FF3B
:1002200003BC01F05FFB000010B500214FF47840E3
:1002300002F0AFF8134803881348028800210846EB
:1002400002F02EF81F2002F0B0F840F213134FF422
:10025000D272591F322002F04CF810BD01F0E8FBB9
:1002600002F0A6F8062001F07BFF01E0FFF7DCFFBB
:10027000FCE701B502E00098401E009000980028BD
:10028000F9D108BD2C0000202A000020704700BFD3
:10029000FEE700BFFEE700BFFEE700BFFEE77047D6
:1002A00070477047704700000CB500200190009027
:1002B0007648006840F480307449086000BF734895
:1002C000006800F4003000900198401C01900098F4
:1002D00018B90198B0F5A04FF1D16C48006800F44E
:1002E000003010B10120009001E000200090009843
:1002F000012846D165484030006840F0805063498D
:10030000403108606248006840F44040604908603D
:100310005E48083000685D4908310860084600689A
:1003200040F4004008600846006840F4A0500860AF
:100330005848091F0860081F006840F08070091FB6
:10034000086000BF5148006800F000700028F9D034
:1003500040F20570504908604C480830006820F0B1
:1003600003004A49083108600846006840F002006E
:10037000086000BF45480830006800F00C000828FD
:10038000F8D10CBD10B54548006840F470004349F1
:1003900008603E48006840F001003C4908600020C9
:1003A0003A4908310860394800683D4908403749F2
:1003B00008603C48091D0860081F006820F4802080
:1003C000091F0860002031490C310860FFF76CFFFD
:1003D0004FF0006031498039086010BD70B50020D1
:1003E0000022022300240221284D08352D6805F043
:1003F0000C0020B1042806D0082834D107E02A4D8B
:100400002A4E356033E02A4D284E35602FE01F4DCF
:100410002D1D2D68C5F380541C4D2D1D2D6805F034
:100420003F0154B1224DB5FBF1F5184E361D36682B
:10043000C6F3881605FB06F209E01B4DB5FBF1F586
:10044000124E361D3668C6F3881605FB06F20F4DB0
:100450002D1D2D68C5F301456D1C6B00B2FBF3F536
:10046000124E356003E0104D104E356000BF00BFE6
:10047000064D08352D68C5F303150E4E705D0B4D06
:100480002D68C540094E356070BD0000003802403F
:100490000070004008544007003C024088ED00E036
:1004A000FFFFF6FE103000240024F40000000020BE
:1004B00000127A00040000200948804709480047DC
:1004C000FEE7FEE7FEE7FEE7FEE7FEE7FEE7FEE704
:1004D000FEE7FEE704480549054A064B7047000061
:1004E00085030008890100086001002060070020E2
:1004F000600300206003002032490143324A11604A
:10050000704770B5002100230F22C4781CB32E4C15
:10051000246804F4E064C4F5E064C4F30721C1F185
:100520000404E3B20A4144789C40E1B28478144068
:1005300021430C07210E254C05786155047804F001
:100540001F050124AC4005786D11AD0005F1E025D3
:10055000C5F8004109E0047804F01F050124AC400F
:100560001B4D0678761145F8264070BD194A0A40A1
:100570000243154B1B1F1A60704739B1124A121DF6
:1005800012680243104B1B1D1A6006E00E4A121D32
:10059000126882430C4B1B1D1A607047042808D157
:1005A0004FF0E021096941F004014FF0E0221161B0
:1005B00007E04FF0E021096921F004014FF0E0224B
:1005C000116170470000FA050CED00E000E400E066
:1005D00080E100E080FFFF1F10B504469848844288
:1005E00008D10121084600F086FB0021012000F01F
:1005F00082FB76E09348844208D10121022000F07A
:100600007AFB0021022000F076FB6AE08E488442EB
:1006100008D10121042000F06EFB0021042000F02D
:100620006AFB5EE08948844208D10121082000F07D
:1006300062FB0021082000F05EFB52E08448844207
:1006400008D10121102000F056FB0021102000F0FD
:1006500052FB46E07F48844208D10121202000F06F
:100660004AFB0021202000F046FB3AE07A48844211
:1006700008D10121402000F03EFB0021402000F085
:100680003AFB2EE07548844208D10121802000F019
:1006900032FB0021802000F02EFB22E070488442D3
:1006A00008D10121801500F026FB0021A01500F0E3
:1006B00022FB16E06B48844208D10121401500F06E
:1006C0001AFB0021601500F016FB0AE06648844220
:1006D00007D10121001500F00EFB0021201500F0CC
:1006E0000AFB10BDF0B50A4600210023002400BF1C
:1006F0003DE0012505FA01F3156805EA03049C4273
:1007000034D105684F000326BE40B5430560157916
:100710004E00B5400668354305601579012D02D0BD
:100720001579022D16D185684F000326BE40B543CA
:10073000856055794E00B5408668354385604568CB
:1007400001268E40B5434560456896798E40B6B225
:1007500035434560C5684F000326BE40B543C560BC
:10076000D5794E00B540C6683543C560491C10298F
:10077000BFD3F0BD4FF6FF710160002101714171DF
:100780008171C171704708B54FF480320092009AB0
:100790000A430092009AC261C161009AC261C269B3
:1007A0000092C269009208BD0246002013690B4006
:1007B0000BB1012000E0002070470146086980B2BB
:1007C00070470246002053690B400BB1012000E046
:1007D000002070470146486980B270470183704726
:1007E000418370470AB1018300E041837047416152
:1007F000704742694A4042617047F0B500230024C7
:100800004D07ED0E02FA05F3CE1000F1200555F864
:1008100026504E07F70E0F26BE40B543CF1000F10D
:10082000200646F82750CE1000F1200555F8265036
:1008300045EA0304CE1000F1200545F82640F0BD3E
:10084000000002400004024000080240000C024088
:10085000001002400014024000180240001C024038
:10086000002002400024024000280240F9480068AD
:1008700040F00100F74908600020F649083108609F
:10088000F4480068F4490840F2490860F348091D3B
:100890000860F348EF4984310860F0481038091DBA
:1008A0000860EC48006820F48020EA4908600020D5
:1008B000E8490C310860E7498C3108607047002135
:1008C000E44A921C117011460870704710B5014639
:1008D0000022002300204A11012A02D1DD4C2368A6
:1008E00008E0022A03D1DB4C7034236802E0D94CC3
:1008F0007434236801F01F02012494401C400CB1A1
:10090000012000E0002010BD38B500200090002438
:10091000002500BF3120FFF7D9FF05460098401C95
:1009200000900098B0F5A04F01D0002DF2D03120FA
:10093000FFF7CCFF08B1012400E00024204638BDB9
:1009400001460020C34A106820F0F80040EAC100C8
:1009500010607047C349086070470021BD4A70327B
:1009600011701170012802D004280AD104E001217D
:10097000B84A7032117005E00521B64A7032117024
:1009800000E000BF00BF7047B7490860704770B50E
:10099000049C41EA82150126C6EB530645EA06454A
:1009A000054345EA0465AB4E361D356070BDAD4963
:1009B00008667047820142EA0172A64B84331A60CE
:1009C0007047A8498866704710B5830143EA016300
:1009D00043EA02739F4C8834236010BDA149086725
:1009E0007047A049C864704702460020994B0833FD
:1009F000186820F0EC6042EA01031843954B083375
:100A00001860704702460020924B0833186820F0A7
:100A1000784042EA010318438E4B08331860704750
:100A2000014600208B4A0832106820F0030008437A
:100A30001060704787480830006800F00C0070476D
:100A400001460020834A0832106820F0F000084375
:100A500010607047014600207E4A0832106820F47A
:100A6000E05008431060704701460020794A083280
:100A7000106820F4604040EAC10010607047F0B593
:100A8000002100220024022500260223714F08378E
:100A90003F6807F00C0121B1042905D0082937D19E
:100AA00005E0724F076036E0714F076033E0694F31
:100AB0003F1D3F68C7F38056664F3F1D3F6807F0F4
:100AC0003F036EB16A4FB7FBF3F7DFF888C10CF153
:100AD000040CDCF800C0CCF3881C07FB0CF40CE021
:100AE000624FB7FBF3F7DFF86CC10CF1040CDCF8D4
:100AF00000C0CCF3881C07FB0CF4564F3F1D3F6829
:100B0000C7F301477F1C7D00B4FBF5F7076002E0E7
:100B1000564F076000BF00BF4E4F08373F6807F0D1
:100B2000F0010909534F7A5C0768D7404760494F85
:100B300008373F6807F4E051890A4E4F7A5C4768EE
:100B4000D7408760434F08373F6807F46041490B3F
:100B5000484F7A5C4768D740C760F0BD002100F479
:100B60004072B2F5407F0AD13A4A0832116821F446
:100B7000F811414A02401143364A08321160354AA1
:100B800070321268C0F30B031A43324B70331A6091
:100B90007047354944390860704733494039086027
:100BA000704736490860704701460020294A8C3258
:100BB000106820F01F004A1E1043264A8C32106035
:100BC000704701460020234A8C32106820F4F85008
:100BD0004A1E40EA02201F4A8C32106070470146CC
:100BE00000201C4A8C32106820F44010084310602A
:100BF000704701460020174A8C32106820F44000EC
:100C000008431060704701460020124A8C32106879
:100C100020F440300843106070471949086070475D
:100C200039B10C4A3032126802430A4B30331A6031
:100C300006E0084A303212688243064B30331A60AD
:100C40007047F9B1034A343212680243014B34331E
:100C50001A601CE000380240FFFFF6EA1030002462
:100C60000030002000004742800E47420024F4007C
:100C700000127A0014000020FFFCFF0F5C014742C5
:100C8000E01147428F4A126882438E4B1A607047C8
:100C900039B18C4A121D126802438A4B1B1D1A601F
:100CA00006E0884A121D12688243864B1B1D1A609B
:100CB000704739B1834A0C3212680243814B0C33BE
:100CC0001A6006E07F4A0C32126882437D4B0C3377
:100CD0001A60704739B17B4A103212680243794B6F
:100CE00010331A6006E0774A103212688243754B5F
:100CF00010331A60704739B1724A243A12680243BD
:100D0000704B243B1A6006E06E4A243A1268824314
:100D10006C4B243B1A60704739B16A4A203A12681A
:100D20000243684B203B1A6006E0664A203A12688C
:100D30008243644B203B1A60704739B1614A1C3AC8
:100D4000126802435F4B1C3B1A6006E05D4A1C3A86
:100D5000126882435B4B1C3B1A60704739B1594A99
:100D6000143A12680243574B143B1A6006E0554A86
:100D7000143A12688243534B143B1A60704739B1DE
:100D8000504A103A126802434E4B103B1A6006E07C
:100D90004C4A103A126882434A4B103B1A60704723
:100DA00039B1484A1C3212680243464B1C331A6060
:100DB00006E0444A1C3212688243424B1C331A60DC
:100DC000704739B13F4A2032126802433D4B20330D
:100DD0001A6006E03B4A203212688243394B2033C6
:100DE0001A60704739B1374A243212680243354BD2
:100DF00024331A6006E0334A243212688243314BAE
:100E000024331A60704739B12E4A2C3212680243DB
:100E10002C4B2C331A6006E02A4A2C32126882438B
:100E2000284B2C331A60704739B1264A3032126889
:100E30000243244B30331A6006E0224A30321268F3
:100E40008243204B30331A607047012808D11D4976
:100E50003C31096841F008011A4A3C32116007E050
:100E600018493C31096821F00801164A3C321160EA
:100E7000704739B1134A273A12780243114B273B86
:100E80001A7006E00F4A273A127882430D4B273B2F
:100E90001A7070470B484030006840F08070094974
:100EA00040310860704701460020064A283A12681F
:100EB0000A400AB1012000E00020704701492639AC
:100EC000087070473438024010B50446FA4884422E
:100ED00008D101211020FFF752FF00211020FFF759
:100EE0004EFF57E0F548844209D101214804FFF73D
:100EF00035FF00214FF40030FFF730FF4AE0F048A3
:100F0000844209D101218804FFF728FF00214FF412
:100F10008020FFF723FF3DE0EA48844209D1012108
:100F2000C804FFF71BFF00214FF40020FFF716FF56
:100F300030E0E548844209D101210805FFF70EFFA2
:100F400000214FF48010FFF709FF23E0DF488442BF
:100F500008D101212020FFF712FF00212020FFF7F8
:100F60000EFF17E0DA48844209D101218807FFF714
:100F7000F5FE00214FF08040FFF7F0FE0AE0D54873
:100F8000844207D101214005FFF7E8FE00216005FA
:100F9000FFF7E4FE10BD2DE9FF4705460E4600248D
:100FA000A14600BFA046B08900B100BF2C8A24F43E
:100FB0004054F08804432C82AC8941F20C60844395
:100FC000B08831890843718908430443AC81AC8AF5
:100FD00024F44074B0890443AC826846FFF74FFDA7
:100FE000B548854202D0B948854202D1DDF80C905F
:100FF00001E0DDF80890A88900F4004040B109EB59
:10100000C90000EB091031684900B0FBF1F707E0B7
:1010100009EBC90000EB091031688900B0FBF1F75A
:101020006420B7FBF0F004012009642101FB107873
:10103000A88900F4004040B1322000EBC800B0FBAA
:10104000F1F000F00700044308E0322000EB081044
:101050006421B0FBF1F000F00F0004432C81BDE8E7
:10106000FF874FF41651016000218180C18001810A
:101070000C21418100218181704710B5024600207A
:10108000108A20F470600B884C8823438C8823439B
:10109000CC8823431843108210BD00210180418079
:1010A0008180C180704721B1828942F400528281DF
:1010B00004E082894DF6FF731A4082817047028BEB
:1010C00002F47F420283028B0A430283704721B1FC
:1010D000828942F40042828103E08289C2F30E02D7
:1010E0008281704721B1828A42F40062828204E0E8
:1010F000828A4FF2FF731A4082827047C1F308025E
:101100008280704701468888C0F308007047028AD1
:101110004FF6F0731A400282028A0A430282704735
:1011200021B1828942F00202828104E082894FF675
:10113000FD731A408281704782894FF2FF731A4013
:10114000828182890A4382817047028A4FF6DF7367
:101150001A400282028A0A430282704721B1028A3F
:1011600042F48042028204E0028A4BF6FF731A4086
:1011700002827047818941F001018181704721B16C
:10118000828A42F00802828204E0828A4FF6F77374
:101190001A4082827047028BD2B20283028B42EAEB
:1011A00001220283704721B1828A42F020028282AA
:1011B00004E0828A4FF6DF731A408282704721B1C1
:1011C000828A42F01002828204E0828A4FF6EF7334
:1011D0001A4082827047828A4FF6FB731A408282DD
:1011E000828A0A438282704721B1828A42F00202D7
:1011F000828204E0828A4FF6FD731A408282704731
:101200001AB1838A0B43838202E0838A8B438382F1
:101210007047F0B50346002400260025002040F664
:101220006A17B94200D100BF1846C1F3421401F059
:101230001F06012707FA06F5012C01D10C3004E046
:10124000022C01D1103000E014301AB107682F438E
:10125000076002E00768AF430760F0BD0246002068
:10126000B1F5007F00D100BF13880B400BB1012006
:1012700000E00020704701F40072B2F5007F00D159
:1012800000BFCA430280704770B5024600240023A5
:101290000025002040F66A16B14200D100BFC1F31C
:1012A000421501F01F03012606FA03F3012D13D1A5
:1012B0009689334017E000000010014000440040D0
:1012C00000480040004C0040005000400014014025
:1012D00000780040007C0040022D02D1168A334085
:1012E00001E0968A33400C12012606FA04F41688AF
:1012F000344013B10CB1012000E0002070BD10B5E6
:101300000022002340F66A14A14200D100BF0A1255
:1013100001249440A3B2DC43048010BD30B943F2F1
:10132000DB028100A1F1C0410A6005E043F2D20274
:101330008100A1F1C0410A606FF07042411C890038
:10134000A1F1C0410A608100A1F1C041C1F80421AE
:101350007047D0E901121143C26811430269114379
:101360004269114382691143C2691143026A114300
:10137000426A1143826A1143C26A1143026B1143EC
:1013800002689200A2F1C0421160816808290BD165
:1013900001688900A1F1C041096841F0400201687B
:1013A0008900A1F1C0410A60416B0968426B526833
:1013B00041EA0211426B926841EA0221426B928932
:1013C00041EA0241426B128A41EA0251426B127DAC
:1013D00041EA0261426B926911430268521C920019
:1013E000A2F1C0421160C16AB1F5804F1BD1816B7F
:1013F0000968826B526841EA0211826B926841EA85
:101400000221826B128A41EA0251826B127D41EA0B
:101410000261826B9269114302689200A2F1C0429C
:10142000C2F8041107E06FF0704201688900A1F171
:10143000C041C1F8042170470021016002214160D0
:1014400000218160C160016141618161C16101620E
:101450004FF480514162490081620021C162016301
:10146000F84941638163704751B18200A2F1C042E3
:10147000126842F001038200A2F1C042136009E049
:101480008200A2F1C0421268EF4B1A408300A3F120
:10149000C0431A60704710280AD118214FF020422B
:1014A0001166402151664FF0FC319166D16610E023
:1014B0001821E64A116040214FF02042C2F8841002
:1014C0004FF0FC31E14A083211604FF02042C2F87F
:1014D0008C10704730B5002100220023446844F08E
:1014E000080485682C43C5682C4305692C4345696D
:1014F00044EA4524856944EA4531C4692468C569DC
:101500006D6844EA0524C5692D8944EA0544C56926
:101510002D7B44EA0562046A2468056A6D6844EA22
:101520000524056A2D8944EA0544056A2D7B44EAB1
:1015300005630468102C05D14FF020442166A26693
:10154000E36608E0C14C21604FF02044C4F88820D5
:10155000BE4C0C34236030BD10210160002141607D
:101560008160C160016141618161FC21C2691160DA
:10157000C2695160C2699160C269D160026A11603A
:10158000026A5160026A9160026AD160704799B143
:10159000102808D14FF02042126E42F004024FF0A2
:1015A00020431A661DE0A94A126842F004024FF077
:1015B0002043C3F8802014E0102809D14FF02042C6
:1015C000126EA14BDB1E1A404FF020431A6608E052
:1015D0009E4A12689C4BDB1E1A404FF02043C3F812
:1015E0008020704799B1102808D14FF02042126E28
:1015F00042F040024FF020431A661DE0934A126801
:1016000042F040024FF02043C3F8802014E010283D
:1016100009D14FF02042126E8B4B3F3B1A404FF0E6
:1016200020431A6608E0894A1268874B3F3B1A40FC
:101630004FF02043C3F88020704701460020102956
:1016400003D14FF02042506F02E0804A14321068FC
:10165000704718207D492031086000200906C1F834
:10166000A4004FF0FC30794928310860091D08605A
:10167000091D08607047016841F01001426841EAA5
:101680004221826841EA4231704A20321160C168C9
:101690000968C268526841EA0221C268128941EAB7
:1016A0000241C268127B41EA0261684A2832116035
:1016B000016909680269526841EA022102691289D6
:1016C00041EA02410269127B41EA02615F4A2C321F
:1016D0001160416909684269526841EA0221426920
:1016E000128941EA02414269127B41EA02614FF0EC
:1016F0002042C2F8B0107047002101604160816053
:10170000FC21C2681160C2685160C2689160C26801
:10171000D1600269116002695160026991600269D9
:10172000D1604269116042695160426991604269C9
:10173000D160704748B145492031096841F0040142
:101740004FF02042C2F8A01009E04049203109685A
:101750003D4AD21E11404FF02042C2F8A0107047FF
:1017600010B5F2B1102807D14FF020435B6E0B4348
:101770004FF02044636632E0B0F5807F08D1334BF0
:101780001B1D1B680B434FF02044C4F8843026E037
:101790002E4B24331B680B434FF02044C4F8A43075
:1017A0001DE0102807D14FF020435B6E8B434FF0B4
:1017B0002044636613E0B0F5807F08D1234B1B1DE6
:1017C0001B688B434FF02044C4F8843007E01F4B64
:1017D00024331B688B434FF02044C4F8A43010BD61
:1017E00010B5024600200023102A03D14FF02044F8
:1017F000636E09E0B2F5807F03D1144C241D236889
:1018000002E0124C2434236803EA01040CB10120E5
:1018100000E0002010BD102807D14FF02042526E8A
:101820008A434FF020435A6619E0B0F5807F0FD10C
:10183000064A121D12688A434FF02043C3F88420E1
:101840000DE0000080240008FEFF0F00800000A0D3
:10185000234A12688A434FF02043C3F8A4207047FC
:1018600070B502460020002300240025102A03D171
:101870004FF02046736E08E0B2F5807F03D1184E1A
:10188000203E336801E0164E336803EA010403EAA0
:10189000D10514B10DB1012000E0002070BD102869
:1018A00008D14FF02042526E22EAD1024FF020437D
:1018B0005A6614E0B0F5807F09D1094A203A1268CF
:1018C00022EAD1024FF02043C3F8842007E0044A03
:1018D000126822EAD1024FF02043C3F8A4207047D7
:1018E000A40000A0014600BF704700BF4C4A128808
:1018F00002F04002002AF9D0C2B2494B9A807047E8
:1019000010B588B0044601210846FFF789F9012186
:101910001020FFF7DFF9072209214248FEF76DFF8B
:1019200007220A213F48FEF768FF4FF4C060069087
:1019300002208DF81C008DF81D0000208DF81E007F
:1019400001208DF81F0006A93648FEF7CBFE029451
:101950000020ADF80C00ADF80E00ADF81000ADF8A9
:1019600014000C20ADF8120002A92D48FFF713FB5C
:1019700001212B48FFF797FB012240F2255128480F
:10198000FFF747FC25208DF8040003208DF80500A3
:101990008DF8060001208DF8070001A8FEF7B1FDC3
:1019A00008B010BD10B540F225511D48FFF76CFC82
:1019B00010B31B48FFF7A6FBC4B21B48008800F415
:1019C0000040C8B91848008800F4804060B10A2C73
:1019D00003D000201449088020E01348008840F418
:1019E00000401149088019E00D2C06D10E480088EE
:1019F00040F480400C49088010E00B480088C0F398
:101A00000D000A490C5408480088401C064908800B
:101A100008460088C72801DD0020088010BD0000AE
:101A20000010014000000240280000203400002087
:101A30001CB501212020FFF7F3F84FF4C06000909F
:101A400001208DF8040000208DF8060003208DF899
:101A5000050001208DF8070069460448FEF742FEA4
:101A60004FF4C0610148FEF7B9FE1CBD00140240EE
:101A700001B502E00098401E009000980028F9D1BE
:101A800008BD01B502E00098401E009000980028B3
:101A9000F9D108BD1CB501217820FFF7C1F800205D
:101AA0008DF8060001208DF8070002208DF8040053
:101AB00003208DF805004FF4804000906946FE48F1
:101AC000FEF710FE0C220E21FB48FEF796FE4FF4A7
:101AD000004000906946F848FEF704FE0C220F21F2
:101AE000F548FEF78AFE012000906946F248FEF7AD
:101AF000F9FD0C220021F048FEF77FFE0220009045
:101B00006946ED48FEF7EEFD0C220121EA48FEF79A
:101B100074FE802000906946E848FEF7E3FD0C2241
:101B20000721E648FEF769FE4FF480700090694691
:101B3000E248FEF7D7FD0C220821E048FEF75DFEE3
:101B40004FF4007000906946DC48FEF7CBFD0C2294
:101B50000921DA48FEF751FE4FF480600090694693
:101B6000D648FEF7BFFD0C220A21D448FEF745FEF9
:101B70004FF4006000906946D048FEF7B3FD0C2298
:101B80000B21CE48FEF739FE4FF480500090694695
:101B9000CA48FEF7A7FD0C221146C848FEF72DFEE5
:101BA0004FF4005000906946C448FEF79BFD0C229C
:101BB0000D21C248FEF721FE4FF480400090694697
:101BC000BE48FEF78FFD0C220E21BC48FEF715FE25
:101BD0004FF4004000906946B848FEF783FD0C22A0
:101BE0000F21B648FEF709FE4FF480700090694659
:101BF000B148FEF777FD0C220821AF48FEF7FDFD46
:101C00004FF4007000906946AB48FEF76BFD0C2264
:101C10000921A948FEF7F1FD4FF480600090694664
:101C2000A548FEF75FFD0C220A21A348FEF7E5FD5B
:101C3000102000906946A048FEF754FD0C220421B4
:101C40009D48FEF7DAFD2020009069469A48FEF78D
:101C500049FD0C2205219848FEF7CFFD4FF4806026
:101C6000009069469648FEF73DFD0C220A219448F3
:101C7000FEF7C3FD4FF48060009069469048FEF780
:101C800031FD0C220A218E48FEF7B7FD00208DF8A9
:101C9000060001208DF807008DF8040002208DF861
:101CA00005008002009069468648FEF71BFD4FF450
:101CB0000070009069468348FEF714FD1CBD00B516
:101CC00097B001210846FEF7E3FF0420019003903E
:101CD0008006079000200290049005900690042052
:101CE00008900020099008200A9010200B900020F6
:101CF0000C900E900F9010904FF480501190002097
:101D000012904FF4804013900020149001A8159079
:101D1000169008A8FFF71DFB01210420FFF7A4FB84
:101D200017B000BD10B54FF4A040FFF7A1FEFF2093
:101D300000F098FBFF2000F099FB982000F096FB44
:101D4000062000F093FB4FF4A040FFF791FEBA206D
:101D500000F088FB602000F089FB4FF4A040FFF703
:101D600087FEBC2000F07EFB032000F07FFB0E20EE
:101D700000F07CFB612000F079FBFF2000F076FB97
:101D8000052000F073FB052000F070FB1B2000F025
:101D90006DFB102000F06AFB732000F067FB6320EE
:101DA00000F064FBFF2000F061FBFF2000F05EFB11
:101DB000052000F05BFB052000F058FB002000F040
:101DC00055FB002000F052FBD52000F04FFBD02047
:101DD00000F04CFB012000F049FB002000F046FB26
:101DE000402000F043FB4FF4A040FFF741FEBD2030
:101DF00000F038FB012000F039FB232000F036FB17
:101E0000452000F033FB672000F030FB012000F09C
:101E10002DFB232000F02AFB452000F027FB672044
:101E200000F024FB4FF4A040FFF722FEBE2000F09C
:101E300019FB012000F01AFB2D2000F017FBCB202E
:101E400000F014FBA22000F011FB622000F00EFB5A
:101E5000F22000F00BFBE22000F008FB222000F053
:101E600005FB222000F002FB4FF4A040FFF700FE2C
:101E7000C72000F0F7FA632000F0F8FA4FF4A04012
:101E8000FFF7F6FDED2000F0EDFA7F2000F0EEFA0E
:101E90000F2000F0EBFA002000F0E8FA4FF4A04029
:101EA000FFF7E6FDC02000F0DDFA032000F0DEFAC7
:101EB0000B2000F0DBFA07E0000C024000100240AB
:101EC0000018024000140240002000F0CFFA4FF446
:101ED000A040FFF7CDFDFC2000F0C4FA082000F080
:101EE000C5FA4FF4A040FFF7C3FDDF2000F0BAFAB7
:101EF000002000F0BBFA002000F0B8FA002000F04B
:101F0000B5FA002000F0B2FA002000F0AFFA20206D
:101F100000F0ACFA4FF4A040FFF7AAFDF32000F068
:101F2000A1FA742000F0A2FA4FF4A040FFF7A0FD40
:101F3000F92000F097FA002000F098FAFD2000F058
:101F400095FA802000F092FA802000F08FFAC020ED
:101F500000F08CFA4FF4A040FFF78AFDB42000F0A7
:101F600081FA022000F082FA022000F07FFA0220BB
:101F700000F07CFA4FF4A040FFF77AFDF72000F064
:101F800071FA812000F072FA4FF4A040FFF770FD63
:101F9000B12000F067FA002000F068FA132000F08A
:101FA00065FA132000F062FA4FF4A040FFF760FDDD
:101FB000F22000F057FAC02000F058FA022000F09A
:101FC00055FA402000F052FA282000F04FFA4FF462
:101FD000A040FFF74DFDC12000F044FA172000F0AB
:101FE00045FA752000F042FA752000F03FFA2020F3
:101FF00000F03CFA4FF4A040FFF73AFDE02000F07B
:1020000031FA002000F032FA052000F02FFA082003
:1020100000F02CFA0C2000F029FA0F2000F026FA2C
:10202000152000F023FA092000F020FA072000F024
:102030001DFA012000F01AFA062000F017FA092014
:1020400000F014FA162000F011FA142000F00EFA35
:102050003E2000F00BFA3E2000F008FA002000F0CD
:1020600005FA4FF4A040FFF703FDE12000F0FAF974
:10207000002000F0FBF9092000F0F8F9122000F030
:10208000F5F9122000F0F2F9132000F0EFF91C200E
:1020900000F0ECF9072000F0E9F9082000F0E6F97B
:1020A000052000F0E3F9082000F0E0F9032000F03B
:1020B000DDF9022000F0DAF9042000F0D7F91E2043
:1020C00000F0D4F91B2000F0D1F9002000F0CEF987
:1020D0004FF4A040FFF7CCFC3A2000F0C3F95520A4
:1020E00000F0C4F94FF4A040FFF7C2FC352000F027
:1020F000B9F9002000F0BAF94FF4A040FFF7B8FC9E
:10210000112000F0AFF94FF4A040FFF7B1FC2920F7
:1021100000F0A8F94FF4A040FFF7AAFC10BD10B5DD
:102120004FF40061AF48FEF75BFBAF20FFF7A9FC5F
:102130004FF40061AB48FEF751FBAF20FFF7A1FC65
:1021400010BD10B504462CB14FF40071A548FEF740
:1021500045FB04E04FF40071A248FEF741FB10BDBF
:1021600010B50446072C00DD10BD204604EBD071ED
:102170004910A4EB410141B94FF4F0709A4908802D
:1021800040F256309949088007E040F256309649AF
:1021900008804FF4F07095490880362000F062F90D
:1021A000002141EA441000F061F92A2000F05AF9B8
:1021B000002000F05BF9002000F058F98A490988F6
:1021C000491EC1F3072000F051F987490978491EDB
:1021D000C8B200F04BF92B2000F044F9002000F0C9
:1021E00045F9002000F042F980490988491EC1F3F1
:1021F000072000F03BF97D490978491EC8B200F07C
:1022000035F92C2000F02EF900BFADE72DE9F041A3
:1022100004460D4616461F462A2000F023F92012D8
:1022200000F024F9E0B200F021F9A119491EC1F330
:102230000F2000F01BF9A119491EC8B200F016F9D1
:102240002B2000F00FF9281200F010F9E8B200F08E
:102250000DF9E919491EC1F30F2000F007F9E9193A
:10226000491EC8B200F002F9BDE8F08170B504461D
:102270000D4601231A4629462046FFF7C7FF70BDC9
:1022800070B504460D4600262C2000F0EBF800BF88
:1022900003E0284600F0EAF8761CA642F9D370BDA8
:1022A0002DE9F04106460F4614461D462B462246B0
:1022B00039463046FFF7AAFF04FB05F04C49098870
:1022C000FFF7DEFFBDE8F08170B505460C464648D5
:1022D000008885420CDA45480088844208DA2146A5
:1022E0002846FFF7C3FF434801880120FFF7C8FFD6
:1022F00070BD2DE9FF4F83B081464FF0000AD346F1
:102300000598A0EB090504990698461ACDF80490A3
:1023100004980090002D01DD012705E00DB900278C
:1023200002E04FF0FF376D42002E02DD4FF0010852
:1023300006E016B94FF0000802E04FF0FF38764291
:10234000B54201DD2C4600E034460020029019E041
:10235000DDE90010FFF7B8FFAA44B344A24505DD4C
:10236000AAEB040A0198384480B20190A34505DD28
:10237000ABEB040B0098404480B200900298401CE4
:1023800080B20290611C02988842E1DD07B0BDE88E
:10239000F08F184A1080164A11807047154A12882B
:1023A0000280134A12880A807047124908807047D9
:1023B00010B5FFF76FFBFFF782FCFFF7B0FEFFF7EA
:1023C000B1FC0D480078FFF7CBFE084803880648AB
:1023D000028800210846FFF763FF0120FFF7B1FEE6
:1023E00010BD0000001402402A0000202C00002034
:1023F00032000020300000202E000020704770477F
:10240000704770477047754600F028F8AE460500E3
:102410006946534620F00700854618B020B5FEF700
:1024200059F8BDE820404FF000064FF000074FF08C
:1024300000084FF0000B21F00701AC46ACE8C009E2
:10244000ACE8C009ACE8C009ACE8C0098D467047EB
:102450000446AFF300802046FDF7DFFE00487047DA
:10246000FC0000204FF0D041088070474FF0D04171
:10247000488070474FF04070E1EE100A704700004E
:102480000F0000000F000000FF0000000F00000020
:102490000F0000000F00000000000000BC24000836
:1024A0000000002034000000C4010008F0240008EF
:1024B000340000202C070000E0010008007A030A25
:1024C00000000000000000000102030406070809E4
:1024D00000000000010203040102030406070809CA
:1024E0000000000000005603E001060000000000AC
:040000050800018965
:00000001FF
