:020000040800F2
:10000000180400209D0100089B02000897020008C8
:1000100099020008E5010008B90500080000000089
:100020000000000000000000000000007D03000848
:10003000E7010008000000009D02000839040008E4
:10004000B7010008B7010008B7010008B7010008B0
:10005000B7010008B7010008B7010008B7010008A0
:10006000B7010008B7010008B7010008B701000890
:10007000B7010008B7010008B7010008B701000880
:10008000B7010008B7010008B7010008B701000870
:10009000B7010008B7010008B7010008B701000860
:1000A000B7010008B7010008B7010008B701000850
:1000B000B7010008B7010008B7010008B701000840
:1000C000B7010008B7010008B7010008B701000830
:1000D000B701000899040008B7010008B70100083B
:1000E000B7010008B7010008B7010008B701000810
:1000F000B7010008B7010008B7010008B701000800
:10010000B7010008B7010008B7010008B7010008EF
:10011000B7010008B7010008B7010008B7010008DF
:10012000B7010008B7010008B7010008B7010008CF
:10013000B7010008B7010008B7010008B7010008BF
:10014000B7010008B7010008B7010008B7010008AF
:10015000B7010008B7010008B7010008B70100089F
:10016000B7010008B7010008B7010008B70100088F
:10017000B7010008B7010008B7010008B70100087F
:10018000B7010008B7010008DFF80CD000F018F83C
:100190000048004721060008180400200648804750
:1001A00006480047FEE7FEE7FEE7FEE7FEE7FEE75C
:1001B000FEE7FEE7FEE7FEE73D04000889010008D0
:1001C000064C074D06E0E06840F0010394E80700A4
:1001D00098471034AC42F6D3FFF7DAFFD406000894
:1001E000F4060008FEE7704701B502E00098401EE3
:1001F000009000980028F9D108BD2DE9F0410022B7
:1002000001274FF0030C07FA02F50B682B40AB42B5
:100210002CD1066853000CFA03F4A64306600E794D
:10022000D0F800809E4046EA080606600E79012E4E
:1002300001D0022E12D18668A64386604E79D0F88E
:1002400008809E4046EA080686604668AE434660DF
:1002500045688E799640B6B235434560C568A5437A
:10026000C560CC799C40C3681C43C460521C102AF2
:10027000C9D3BDE8F08110B54B07DB0E9A40C90821
:1002800000EB8100016A0F249C40A1430162016AD6
:100290001143016210BDFEE7FEE7704770470000A2
:1002A000054A002903D011680143116070471168A5
:1002B000814311607047000030380240054A002930
:1002C00003D01168014311607047116881431160C8
:1002D000704700004438024070B5244B196801F0A3
:1002E0000C01234C00291ED0224E04291DD00829C0
:1002F0001DD00460196801F0F00109091E4A545C20
:100300000168E14041601C6804F4E054A40A145DF3
:1003100021FA04F484601B6803F460435B0BD25C35
:10032000D140C16070BD0460E4E70660E2E70F4AB7
:10033000121F1168C1F38055116801F03F0135B1FA
:10034000B6FBF1F11468C4F38814614305E0B4FB13
:10035000F1F11468C4F3881461431268C2F30142D6
:10036000521C5200B1FBF2F10160C3E708380240B1
:100370000024F40040787D01000000207047000058
:100380000CB50022019200922749086840F48030A1
:1003900008604FF4A043086800F400300090019812
:1003A000401C0190009810B901989842F3D1086858
:1003B000800302D50120009000E0009200980128FF
:1003C00031D119484030026842F08052026017482B
:1003D000026842F44042026013480830026802603A
:1003E000026842F400420260026842F4A0520260D5
:1003F000021F0F4B13600A6842F080720A600A689D
:100400009201FCD50B4A40F205711160016821F0A0
:1004100003010160016841F0020101600168C1F35C
:1004200081010229FAD10CBD003802400070004061
:1004300008544007003C02407047000010B51248C5
:10044000016841F4700101601048016841F0010148
:1004500001600E4A00210832116002680C4B1A40FC
:100460000260031D0B4A1A60026822F480220260B7
:1004700006480C300160FFF783FF03494FF000602E
:100480008039086010BD000088ED00E000380240AF
:10049000FFFFF6FE1030002410B5094C40F2255144
:1004A000204600F01BF8002808D0204600F07CF819
:1004B000C1B22046BDE8104000F07AB810BD00007F
:1004C00000100140002904D0818941F4005181814C
:1004D0007047818921F400518181704702460020D4
:1004E00012880A4200D00120704700007FB5044600
:1004F0000D46208A20F44051E88808432082A089D4
:1005000041F20C618843A9882A8911436A89024310
:100510001143A181A08A20F44071A8890843A082D8
:100520006846FFF7D9FE1E48844202D01D48844227
:1005300001D1039800E00298A189090408D500EBD5
:10054000C00101EB001029684900B0FBF1F007E0A1
:1005500000EBC00101EB001029688900B0FBF1F04D
:100560006422B0FBF2F109010B096FF018056B432F
:1005700000EB8300A3891D044FF0320307D503EB82
:10058000C000B0FBF2F000F00700084306E003EB08
:100590000010B0FBF2F000F00F00084320817FBD97
:1005A00000100140001401408088C0F3080070472B
:1005B000C1F3080181807047FEE70000014A02494B
:1005C00000F013B80D0600081000002002E008C873
:1005D000121F08C1002AFAD170477047002001E0BD
:1005E00001C1121F002AFBD170472DE9F0411646C8
:1005F0000F460446002503E03946B047641C6D1CD5
:1006000020780028F8D12846BDE8F08103490A88FF
:100610005206FCD5C2B28A8070470000001001402B
:100620004FF4E13000F012F86FF07F4403A0FFF7C1
:10063000C5FF2046FFF7D8FDF8E700000D0AC7EB1D
:10064000CAE4C8EBCAFDBEDD0D0A000070B586B075
:10065000054601210846FFF723FE01211020FFF780
:100660002DFE1A4E072209213046FFF704FE07220D
:100670000A213046FFF7FFFD4FF4C06004900220CE
:100680008DF814008DF8150000248DF81640012017
:100690008DF8170004A93046FFF7AFFD0095ADF8BF
:1006A0000440ADF80640ADF80840ADF80C400C2011
:1006B000ADF80A00064C69462046FFF717FF0121F6
:1006C0002046FFF7FFFE06B070BD000000000240AC
:1006D00000100140F4060008000000201400000093
:1006E000CC050008080700081400002004040000DE
:1006F000DC050008000000000102030401020304FD
:080700000607080900000000D3
:040000050800018965
:00000001FF
