:020000040800F2
:100000007806002039020008430C0008410A000865
:10001000410C000865060008790F00080000000088
:100020000000000000000000000000003D0D00087E
:100030006706000800000000450C0008F90D0008E4
:10004000530200085302000853020008530200083C
:10005000530200085302000853020008530200082C
:10006000530200085302000853020008530200081C
:10007000530200085302000853020008530200080C
:1000800053020008530200085302000853020008FC
:1000900053020008530200085302000853020008EC
:1000A00053020008530200085302000853020008DC
:1000B00053020008530200085302000853020008CC
:1000C00053020008530200085302000853020008BC
:1000D00053020008590E000853020008530200089A
:1000E000530200085302000853020008530200089C
:1000F000530200085302000853020008530200088C
:10010000530200085302000853020008530200087B
:10011000530200085302000853020008530200086B
:10012000530200085302000853020008530200085B
:10013000530200085302000853020008530200084B
:10014000530200085302000853020008530200083B
:10015000530200085302000853020008530200082B
:10016000530200085302000853020008530200081B
:10017000530200085302000853020008530200080B
:10018000530200085302000800F002F800F044F89F
:100190000AA090E8000C82448344AAF10107DA45E2
:1001A00001D100F039F8AFF2090EBAE80F0013F0F0
:1001B000010F18BFFB1A43F0010318472810000075
:1001C00048100000103A24BF78C878C1FAD8520706
:1001D00024BF30C830C144BF04680C6070470000C1
:1001E0000023002400250026103A28BF78C1FBD840
:1001F000520728BF30C148BF0B607047642900F028
:100200007180782900F0AA80002070471FB500F0A7
:10021000C7FF1FBD10B510BD00F0F4F91146FFF780
:10022000F5FF00F009FF00F012FA03B4FFF7F2FF48
:1002300003BC00F0F6FE000009488047094800476B
:10024000FEE7FEE7FEE7FEE7FEE7FEE7FEE7FEE786
:10025000FEE7FEE704480549054A064B70470000E3
:10026000FD0D0008890100087800002078060020B4
:100270007802002078020020704700000FB4044983
:1002800010B503AA029800F08FF910BC5DF814FBBA
:100290001000002070B5044685690068C10601D5CC
:1002A000302600E02026C00707D070BDD4E9012128
:1002B00030469047206A401C20626D1EF6D570BD06
:1002C00070B5044685690078C00707D170BDD4E9D0
:1002D000012120209047206A401C20626D1EF6D527
:1002E00070BD00002DE9F041064600241068752914
:1002F000314616A510D0AFF30080002802DA404244
:1003000013A507E031688A0701D512A502E0490765
:1003100004D511A5012401E0AFF3008000210A22D9
:1003200006F1240709E0B0FBF2FCB0FBF2F302FB9C
:100330001C00303078541846491C0028F3D123465D
:100340002A463046BDE8F04100F0D4B80000000075
:100350002D0000002B0000002000000070B50446B6
:100360000D4621461068AFF300802188090502D5AB
:100370000F4A7A4402E00E4A7A440E32002104F118
:10038000240305E000F00F060009965D5E54491C49
:100390000028F7D120780023000704D5702D02D063
:1003A00009B1022311322046BDE8704000F0A2B826
:1003B000340E00002DE9F05F894604464FF0000A34
:1003C000DFF824B1FB44C0F820A02046E16888474C
:1003D00000287DD0252806D0D4E901219047206A45
:1003E000401C2062F1E700255F462046E16888470F
:1003F0002028064607DB312E05D2B81910F8200C4C
:1004000008B10543F1E7A80701D525F00405C4F8B4
:100410001CA00027C4F818A02A2E09D0304600F0EE
:10042000F9FD38B304EB8708303EC8F8186019E0CE
:1004300059F8041B204604EB87029161E168884764
:10044000012F064618D1E069002820DA25F02005A2
:100450001DE0D8F8180000EB800006EB40003038B3
:10046000C8F818002046E1688847064600F0D2FD2B
:100470000028EED1012F0AD02E2E08D12046E168A7
:1004800088477F1C0646022F45F02005C4DBA06983
:10049000002803DA404245F00105A061E80701D0D9
:1004A00025F01005A6B1A6F14100192802D8203682
:1004B00045F400654A463146204625604D46FFF723
:1004C0009DFE60B1012807D0ED1D25F0070000E07A
:1004D00007E000F1080978E705F1040975E73046FF
:1004E0007AE7206ABDE8F09F0A0E00007047704767
:1004F000704770472DE9F0470D46994692460446ED
:1005000000F124080168880604D5E06921F0100193
:10051000216000E00120A84201DD471B00E0002728
:10052000A1697A1902EB0900081AA0612078C006B7
:1005300002D42046FFF7AEFE002608E0D4E90121F0
:100540001AF806009047206A401C761C20624E452F
:10055000F4DB2078C0060AD52046FFF79BFE06E0B4
:10056000D4E9012130209047206A401C2062381EC7
:10057000A7F10107F4DC07E0D4E9012118F8050030
:100580009047206A401C2062281EA5F10105F3DC7B
:100590002046FFF795FE2078000602D50220BDE830
:1005A000F0870120FBE70000074B70B50D467B4448
:1005B00000F011F80446284600F020F810B14FF082
:1005C000FF3070BD204670BD730A000001694A1CEF
:1005D00002610878704700B58FB0CDE90131002184
:1005E000059105497944CDE9031011466846FFF7A6
:1005F000E1FE0FB000BD0000E5FFFFFF007B00F053
:1006000080007047754600F029F8AE46050069463F
:10061000534620F00700854618B020B5FFF71AFEB4
:10062000BDE820404FF000064FF000074FF00008F3
:100630004FF0000B21F00701AC46ACE8C009ACE874
:10064000C009ACE8C009ACE8C0098D467047044653
:10065000AFF300802046FFF7E8FD00000048704738
:1006600018000020FEE770472DE9F05F83460D4635
:100670001446DFF858810121404600F03BFA544E01
:100680004FF6FF79C6F80090524F03E03068401EE5
:10069000306078B13946404600F0DFF90128F5D1E5
:1006A0000022A021404600F0C0FAC6F80090DFF812
:1006B00028A108E0BDE8F05F0F2000F05DB93068C8
:1006C000401E306080B15146404600F0C6F9012816
:1006D000F5D15946404600F0B1FAC6F80090DFF86F
:1006E000F8A00AF1020A08E0BDE8F05F102000F06F
:1006F00043B93168491E316061B15146404600F04E
:10070000ACF90128F5D10121404600F0F3F9C6F813
:10071000009008E0BDE8F05F112000F02DB93168CD
:10072000491E316079B13946404600F096F90128FA
:10073000F5D10122A021404600F077FAC6F80090DA
:10074000244F7F1C08E0BDE8F05F122000F014B9D0
:100750003068401E306040B13946404600F07DF9B7
:100760000128F5D11B4F3F3720E0BDE8F05F132093
:1007700000F002B934B10121404600F062F9C6F838
:10078000009008E00021404600F05BF9F7E7306890
:10079000401E3060A0B13946404600F05EF90128A5
:1007A000F5D1404600F03EFA05F8010B641EA4B2F4
:1007B000E0D20121404600F0A9F90020BDE8F09FF9
:1007C000BDE8F05F142000F0D7B8000000540040EE
:1007D0001400002001000300820007002DE9F04111
:1007E00005460E469046002408F00707002F11D05A
:1007F000C7F10800C7B23A463146284600F03AF839
:1008000000F0BCFBE819C5B23E44A8EB070000F0BD
:10081000070721E0C8F3C70409E00822314628464B
:1008200000F028F800F0AAFB0835EDB20836641E87
:10083000E4B2F2D23A463146284600F01BF800F006
:100840009DFB13E008223146284600F013F800F023
:1008500095FB0835EDB20836641EE4B2F2D23A4692
:100860003146284600F006F800F088FB0020BDE87D
:10087000F08100002DE9F04707460D461446DFF8E9
:10088000E8A00121504600F035F9384E4FF6FF79C7
:10089000C6F80090DFF8D88003E03168491E316067
:1008A00079B14146504600F0D8F80128F5D1002230
:1008B000A021504600F0B9F9C6F80090DFF8B480E6
:1008C00008E0BDE8F047012000F056B83168491E45
:1008D000316089B14146504600F0BFF80128F5D19A
:1008E00039465746384600F0A9F9C6F80090DFF8B7
:1008F000848008F1020808E0BDE8F047022000F01B
:100900003BB83068401E306030B14146384600F098
:10091000A4F80128F5D116E0BDE8F047032000F067
:100920002BB82978384600F089F9C6F8009003E022
:100930003068401E306088B14146384600F08DF87E
:100940000128F5D16D1C641EE4B2EAD201213846BB
:1009500000F0DCF8BDE8F04700F010BBBDE8F04760
:10096000042000F009B800000054004014000020EA
:10097000010003008200070010B50446214602A0D2
:10098000FFF77CFC204610BD0D0A493243206572FA
:10099000726F72206F636375722C636F64653D259F
:1009A000640D0A002DE9F041002201274FF0030CED
:1009B00007FA02F50B682B40AB422CD106685300B6
:1009C0000CFA03F4A64306600E79D0F800809E402E
:1009D00046EA080606600E79012E01D0022E12D1D9
:1009E0008668A64386604E79D0F808809E4046EA25
:1009F000080686604668AE43466045688E79964034
:100A0000B6B235434560C568A543C560CC799C4006
:100A1000C3681C43C460521C102AC9D3BDE8F081CE
:100A200010B54B07DB0E9A40C90800EB8100016A44
:100A30000F249C40A1430162016A1143016210BD71
:100A4000FEE7002904D0018841F4806101807047ED
:100A5000018821F4806101807047034600209A8A52
:100A60001B8B1B041A4322F07F42914300D10120CB
:100A70007047002904D0018841F0010101807047CE
:100A8000018821F001010180704710B500F004F8E1
:100A9000BDE8104000F0A4B81CB50121480500F0E5
:100AA000E1F80121022000F0CFF8114C04220821C6
:100AB0002046FFF7B5FF042209212046FFF7B0FFCB
:100AC000A115009102218DF804108DF80510012167
:100AD0008DF8061000218DF8071069462046FFF7B3
:100AE00061FF6115009169462046FFF75BFF1CBD61
:100AF00000040240002904D0018841F48071018083
:100B00007047018821F4807101807047002904D06A
:100B1000018841F4007101807047018821F400715F
:100B2000018070477FB504460D46A08820F03F063F
:100B3000684600F0B3F802982749B0FBF1F189B29A
:100B40000E43A680228822F001022280234B2A68CD
:100B50009A4209D85200B0FBF2F080B2042800D2C9
:100B60000420491C218423E0EB88A3F53F46FF3E87
:100B70000BD002EBC20303EB0212B0FBF2F080B227
:100B800040F48040020506D007E002EB4202B0FBD1
:100B9000F2F080B2F6E740F0010040F400404FF47C
:100BA000967251434FF47A72B1FBF2F1491C2184E1
:100BB000A083208840F00100208020884FF6F53186
:100BC0000840A9886A89114301432180A88929899D
:100BD000084320817FBD000040420F00A086010035
:100BE0001FB50E4800900020ADF804004BF6FF70D2
:100BF000ADF806000A20ADF808004FF48060ADF8AB
:100C00000A000001ADF80C00054C69462046FFF7CC
:100C100089FF01212046FFF72CFF1FBD801A060027
:100C200000540040008AC0B27047002A02D041F050
:100C3000010101E001F0FE0101827047018270476D
:100C4000FEE7704770470000054A002903D011688D
:100C500001431160704711688143116070470000C3
:100C600030380240054A002903D011680143116061
:100C7000704711688143116070470000403802409E
:100C8000054A002903D011680143116070471168BB
:100C900081431160704700004438024070B5244B16
:100CA000196801F00C01234C00291ED0661004299C
:100CB0001DD008291DD00460196801F0F001090950
:100CC0001D4A545C0168E14041601C6804F4E05432
:100CD000A40A145D21FA04F484601B6803F46043E1
:100CE0005B0BD25CD140C16070BD0460E4E706607C
:100CF000E2E70F4A121F1168C1F38055116801F035
:100D00003F0135B1B6FBF1F11468C4F388146143B7
:100D100005E0B4FBF1F11468C4F388146143126870
:100D2000C2F30142521C5200B1FBF2F10160C3E771
:100D3000083802400024F400000000207047000042
:100D40000CB50022019200922749086840F48030D7
:100D500008604FF4A043086800F400300090019848
:100D6000401C0190009810B901989842F3D108688E
:100D7000800302D50120009000E000920098012835
:100D800031D119484030026842F080520260174861
:100D9000026842F440420260134808300268026070
:100DA000026842F400420260026842F4A05202600B
:100DB000021F0F4B13600A6842F080720A600A68D3
:100DC0009201FCD50B4A40F205711160016821F0D7
:100DD00003010160016841F0020101600168C1F393
:100DE00081010229FAD10CBD003802400070004098
:100DF00008544007003C02407047000010B51248FC
:100E0000016841F4700101601048016841F001017E
:100E100001600E4A00210832116002680C4B1A4032
:100E20000260031D0B4A1A60026822F480220260ED
:100E300006480C300160FFF783FF03494FF0006064
:100E40008039086010BD000088ED00E000380240E5
:100E5000FFFFF6FE1030002410B5094C40F225517A
:100E6000204600F01BF8002808D0204600F07CF84F
:100E7000C1B22046BDE8104000F07AB810BD0000B5
:100E800000100140002904D0818941F40051818182
:100E90007047818921F4005181817047024600200A
:100EA00012880A4200D00120704700007FB5044636
:100EB0000D46208A20F44051E88808432082A0890A
:100EC00041F20C618843A9882A8911436A89024347
:100ED0001143A181A08A20F44071A8890843A0820F
:100EE0006846FFF7DBFE1E48844202D01D4884425C
:100EF00001D1039800E00298A189090408D500EB0C
:100F0000C00101EB001029684900B0FBF1F007E0D7
:100F100000EBC00101EB001029688900B0FBF1F083
:100F20006422B0FBF2F109010B096FF018056B4365
:100F300000EB8300A3891D044FF0320307D503EBB8
:100F4000C000B0FBF2F000F00700084306E003EB3E
:100F50000010B0FBF2F000F00F00084320817FBDCD
:100F600000100140001401408088C0F30800704761
:100F7000C1F3080181807047FEE700002DE9F041D0
:100F80001F4CDFF8808026111F4D28E001214046CC
:100F9000FFF7B0FD2E601D4F03E02A68521E2A6045
:100FA0006AB139464046FFF758FD0128F5D10022C5
:100FB000A0214046FFF739FE2E60154F0AE0BDE83C
:100FC000F0410B20FFF7D8BC39464046FFF745FDFE
:100FD00001280ED02A68521E2A60521CF4D1641EC9
:100FE000601CD3D101214046FFF790FD0120BDE8F0
:100FF000F08101214046FFF789FD0020F7E700005E
:10100000FFFF0F0000540040140000200100030007
:101010008200070030380A2801D2012070470020E2
:101020007047704703490A885206FCD5C2B28A80CD
:101030007047000000100140ADF5007D4FF4E13035
:1010400000F06AF818A0FFF719F9FFF71EFD1DA0C0
:10105000FFF714F9002040A90854401C80B2FF2873
:10106000FAD91CA0FFF70AF94FF48074224640A970
:101070000020FFF7B3FB1AA0FFF700F922466946EC
:101080000020FFF7F1FA19A0FFF7F8F800246D46E9
:101090001FA0295DFFF7F2F8641CA4B2FF2CF7D95A
:1010A0000EA0FFF7EBF8FEE7D5E2CAC7D2BBB8F651
:1010B000454550524F4DB6C1D0B4CAB5D1E90D0A1D
:1010C00000000000B3F5CABCBBAF627566660D0ACE
:1010D00000000000BFAACABCD0B4C8EB0D0A0000D3
:1010E000BFAACABCB6C1C8A10D0A0000D2B3B6C11E
:1010F000D0B4C8EBB2E2CAD4BDE1CAF82C20B6C164
:10110000C8A1B5BDB5C4CAFDBEDDCEAA3A0D0A0060
:10111000307825303278200070B586B00546012140
:101120000846FFF791FD01211020FFF7A9FD1A4E97
:10113000072209213046FFF773FC07220A213046B7
:10114000FFF76EFC4FF4C060049002208DF814008D
:101150008DF8150000248DF8164001208DF8170039
:1011600004A93046FFF71EFC0095ADF80440ADF829
:101170000640ADF80840ADF80C400C20ADF80A0070
:10118000064C69462046FFF791FE01212046FFF7F5
:1011900079FE06B070BD0000000002400010014062
:1011A0004FF04070E1EE100A704730313233343581
:1011B0003637383941424344454640305800303193
:1011C00032333435363738396162636465664030AE
:1011D0007800040000080000000000000002000188
:1011E0000000100004120008000000201800000099
:1011F000C40100081C12000818000020600600004E
:10120000E0010008000000000102030401020304E1
:0C1210000607080900000000FFFF0000B6
:040000050800018965
:00000001FF
