:020000040800F2
:1000000070070020AD040008810200088302000888
:10001000870200088B0200088F0200080000000021
:100020000000000000000000000000009302000833
:1000300095020008000000009702000899020008DD
:10004000C7040008C7040008C7040008C704000864
:10005000C7040008C7040008C7040008C704000854
:10006000C7040008C7040008C7040008C704000844
:10007000C7040008C7040008C7040008C704000834
:10008000C7040008C7040008C7040008C704000824
:10009000C7040008C7040008C7040008C704000814
:1000A000C7040008C7040008C7040008C704000804
:1000B000C7040008C7040008C7040008C7040008F4
:1000C000C7040008C7040008C7040008C7040008E4
:1000D000C70400089D1A0008C7040008C7040008E8
:1000E000C7040008C7040008C7040008C7040008C4
:1000F000C7040008C7040008C7040008C7040008B4
:10010000C7040008C7040008C7040008C7040008A3
:10011000C7040008C7040008C7040008C704000893
:10012000C7040008C7040008C7040008C704000883
:10013000C7040008C7040008C7040008C704000873
:10014000C7040008C7040008C7040008C704000863
:10015000C7040008C7040008C7040008C704000853
:10016000C7040008C7040008C7040008C704000843
:10017000C7040008C7040008C7040008C704000833
:10018000C7040008C704000800F002F800F041F8B6
:100190000AA090E8000C82448344AAF10107DA45E2
:1001A00001D100F036F8AFF2090EBAE80F0013F0F3
:1001B000010F18BFFB1A43F0010318472431000058
:1001C00044310000103A24BF78C878C1FAD85207E9
:1001D00024BF30C830C144BF04680C6070470000C1
:1001E0000023002400250026103A28BF78C1FBD840
:1001F000520728BF30C148BF0B607047642902F026
:100200004F87002070471FB503F056F81FBD10B58B
:1002100010BD03F00DF81146FFF7F5FF00F008F8E8
:1002200003F02BF803B4FFF7F2FF03BC01F0D6FB99
:1002300008B5A82001F050FB4FF4E13001F0DCFBE1
:1002400001F072FC02F0B4FE4FF4784064231A46C9
:100250000A210090084602F003FE08E04FF47A708D
:1002600001F09CFB0248018802A002F0D9FEF5E7EC
:10027000340000206C63645F69642025640D0A000B
:10028000704700BFFEE700BFFEE700BFFEE700BF0C
:10029000FEE7704770477047704700000CB50020BC
:1002A000019000907648006840F4803074490860FE
:1002B00000BF7348006800F4003000900198401CB3
:1002C0000190009818B90198B0F5A04FF1D16C4891
:1002D000006800F4003010B10120009001E000201F
:1002E00000900098012846D165484030006840F0F1
:1002F00080506349403108606248006840F44040E3
:10030000604908605E48083000685D49083108604F
:100310000846006840F4004008600846006840F461
:10032000A05008605848091F0860081F006840F086
:100330008070091F086000BF5148006800F000701D
:100340000028F9D040F20570504908604C48083048
:10035000006820F003004A49083108600846006838
:1003600040F00200086000BF45480830006800F017
:100370000C000828F8D10CBD10B54548006840F4C1
:100380007000434908603E48006840F001003C4965
:10039000086000203A4908310860394800683D4942
:1003A0000840374908603C48091D0860081F00687C
:1003B00020F48020091F0860002031490C310860BA
:1003C000FFF76CFF4FF0006031498039086010BDC5
:1003D00070B500200022022300240221284D083598
:1003E0002D6805F00C0020B1042806D0082834D16F
:1003F00007E02A4D2A4E356033E02A4D284E3560FD
:100400002FE01F4D2D1D2D68C5F380541C4D2D1D53
:100410002D6805F03F0154B1224DB5FBF1F5184EA2
:10042000361D3668C6F3881605FB06F209E01B4D3B
:10043000B5FBF1F5124E361D3668C6F3881605FB7E
:1004400006F20F4D2D1D2D68C5F301456D1C6B0087
:10045000B2FBF3F5124E356003E0104D104E3560DF
:1004600000BF00BF064D08352D68C5F303150E4EBD
:10047000705D0B4D2D68C540094E356070BD0000A4
:10048000003802400070004008544007003C024021
:1004900088ED00E0FFFFF6FE103000240024F40099
:1004A0000000002000127A00040000200948804764
:1004B00009480047FEE7FEE7FEE7FEE7FEE7FEE746
:1004C000FEE7FEE7FEE7FEE704480549054A064B5E
:1004D00070470000790300088901000870010020BE
:1004E0007007002070030020700300203249014390
:1004F000324A1160704770B5002100230F22C47882
:100500001CB32E4C246804F4E064C4F5E064C4F326
:100510000721C1F10404E3B20A4144789C40E1B2EE
:100520008478144021430C07210E254C0578615531
:10053000047804F01F050124AC4005786D11AD006E
:1005400005F1E025C5F8004109E0047804F01F0535
:100550000124AC401B4D0678761145F8264070BD4D
:10056000194A0A400243154B1B1F1A60704739B1E4
:10057000124A121D12680243104B1B1D1A6006E03E
:100580000E4A121D126882430C4B1B1D1A607047E5
:10059000042808D14FF0E021096941F004014FF02F
:1005A000E022116107E04FF0E021096921F0040128
:1005B0004FF0E022116170470000FA050CED00E0F9
:1005C00000E400E080E100E080FFFF1F10B504467A
:1005D0009848844208D10121084600F086FB00219A
:1005E000012000F082FB76E09348844208D101218B
:1005F000022000F07AFB0021022000F076FB6AE086
:100600008E48844208D10121042000F06EFB0021B5
:10061000042000F06AFB5EE08948844208D1012191
:10062000082000F062FB0021082000F05EFB52E091
:100630008448844208D10121102000F056FB00219B
:10064000102000F052FB46E07F48844208D101218F
:10065000202000F04AFB0021202000F046FB3AE079
:100660007A48844208D10121402000F03EFB00215D
:10067000402000F03AFB2EE07548844208D1012169
:10068000802000F032FB0021802000F02EFB22E0D1
:100690007048844208D10121801500F026FB00211A
:1006A000A01500F022FB16E06B48844208D101211E
:1006B000401500F01AFB0021601500F016FB0AE05F
:1006C0006648844207D10121001500F00EFB00218D
:1006D000201500F00AFB10BDF0B50A4600210023EA
:1006E000002400BF3DE0012505FA01F3156805EA85
:1006F00003049C4234D105684F000326BE40B54335
:10070000056015794E00B5400668354305601579DA
:10071000012D02D01579022D16D185684F000326D0
:10072000BE40B543856055794E00B5408668354377
:100730008560456801268E40B543456045689679D9
:100740008E40B6B235434560C5684F000326BE40B3
:10075000B543C560D5794E00B540C6683543C56020
:10076000491C1029BFD3F0BD4FF6FF710160002175
:10077000017141718171C171704708B54FF48032C8
:100780000092009A0A430092009AC261C161009AE5
:10079000C261C2690092C269009208BD024600208F
:1007A00013690B400BB1012000E0002070470146A7
:1007B000086980B270470246002053690B400BB1B4
:1007C000012000E0002070470146486980B2704770
:1007D00001837047418370470AB1018300E0418380
:1007E00070474161704742694A4042617047F0B5C5
:1007F000002300244D07ED0E02FA05F3CE1000F1A0
:10080000200555F826504E07F70E0F26BE40B5437B
:10081000CF1000F1200646F82750CE1000F1200539
:1008200055F8265045EA0304CE1000F1200545F89E
:100830002640F0BD000002400004024000080240D3
:10084000000C024000100240001402400018024058
:10085000001C024000200240002402400028024008
:10086000F948006840F00100F74908600020F649A7
:1008700008310860F4480068F4490840F24908600B
:10088000F348091D0860F348EF4984310860F048D7
:100890001038091D0860EC48006820F48020EA49FF
:1008A00008600020E8490C310860E7498C31086095
:1008B00070470021E44A921C11701146087070477D
:1008C00010B501460022002300204A11012A02D15E
:1008D000DD4C236808E0022A03D1DB4C7034236826
:1008E00002E0D94C7434236801F01F0201249440C3
:1008F0001C400CB1012000E0002010BD38B50020E4
:1009000000900024002500BF3120FFF7D9FF0546E5
:100910000098401C00900098B0F5A04F01D0002D29
:10092000F2D03120FFF7CCFF08B1012400E0002411
:10093000204638BD01460020C34A106820F0F80068
:1009400040EAC10010607047C34908607047002149
:10095000BD4A703211701170012802D004280AD1EA
:1009600004E00121B84A7032117005E00521B64A51
:100970007032117000E000BF00BF7047B7490860D7
:10098000704770B5049C41EA82150126C6EB5306F8
:1009900045EA0645054345EA0465AB4E361D35601C
:1009A00070BDAD4908667047820142EA0172A64BEC
:1009B00084331A607047A8498866704710B5830170
:1009C00043EA016343EA02739F4C8834236010BDFD
:1009D000A14908677047A049C864704702460020D3
:1009E000994B0833186820F0EC6042EA0103184381
:1009F000954B08331860704702460020924B08332D
:100A0000186820F0784042EA010318438E4B0833FF
:100A100018607047014600208B4A0832106820F0A9
:100A2000030008431060704787480830006800F0F2
:100A30000C00704701460020834A0832106820F0FD
:100A4000F000084310607047014600207E4A0832DB
:100A5000106820F4E0500843106070470146002001
:100A6000794A0832106820F4604040EAC100106002
:100A70007047F0B500210022002402250026022341
:100A8000714F08373F6807F00C0121B1042905D0E8
:100A9000082937D105E0724F076036E0714F0760D3
:100AA00033E0694F3F1D3F68C7F38056664F3F1DD7
:100AB0003F6807F03F036EB16A4FB7FBF3F7DFF80B
:100AC00088C10CF1040CDCF800C0CCF3881C07FBD7
:100AD0000CF40CE0624FB7FBF3F7DFF86CC10CF1DC
:100AE000040CDCF800C0CCF3881C07FB0CF4564F58
:100AF0003F1D3F68C7F301477F1C7D00B4FBF5F73E
:100B0000076002E0564F076000BF00BF4E4F083736
:100B10003F6807F0F0010909534F7A5C0768D74036
:100B20004760494F08373F6807F4E051890A4E4F44
:100B30007A5C4768D7408760434F08373F6807F4BF
:100B40006041490B484F7A5C4768D740C760F0BDA9
:100B5000002100F44072B2F5407F0AD13A4A0832CF
:100B6000116821F4F811414A02401143364A083213
:100B70001160354A70321268C0F30B031A43324BCE
:100B800070331A60704735494439086070473349FB
:100B900040390860704736490860704701460020B8
:100BA000294A8C32106820F01F004A1E1043264A42
:100BB0008C321060704701460020234A8C32106846
:100BC00020F4F8504A1E40EA02201F4A8C3210607E
:100BD0007047014600201C4A8C32106820F44010F7
:100BE00008431060704701460020174A8C32106895
:100BF00020F4400008431060704701460020124A6C
:100C00008C32106820F44030084310607047194956
:100C10000860704739B10C4A3032126802430A4BFF
:100C200030331A6006E0084A303212688243064BBD
:100C300030331A607047F9B1034A34321268024304
:100C4000014B34331A601CE000380240FFFFF6EA23
:100C5000103000240030002000004742800E474240
:100C60000024F40000127A0014000020FFFCFF0FA3
:100C70005C014742E01147428F4A126882438E4B23
:100C80001A60704739B18C4A121D126802438A4BB0
:100C90001B1D1A6006E0884A121D12688243864BAB
:100CA0001B1D1A60704739B1834A0C321268024327
:100CB000814B0C331A6006E07F4A0C321268824383
:100CC0007D4B0C331A60704739B17B4A1032126881
:100CD0000243794B10331A6006E0774A10321268EB
:100CE0008243754B10331A60704739B1724A243A07
:100CF00012680243704B243B1A6006E06E4A243AA5
:100D0000126882436C4B243B1A60704739B16A4ABF
:100D1000203A12680243684B203B1A6006E0664A9C
:100D2000203A12688243644B203B1A60704739B105
:100D3000614A1C3A126802435F4B1C3B1A6006E092
:100D40005D4A1C3A126882435B4B1C3B1A60704739
:100D500039B1594A143A12680243574B143B1A608E
:100D600006E0554A143A12688243534B143B1A600A
:100D7000704739B1504A103A126802434E4B103B4B
:100D80001A6006E04C4A103A126882434A4B103B04
:100D90001A60704739B1484A1C3212680243464B08
:100DA0001C331A6006E0444A1C3212688243424BEC
:100DB0001C331A60704739B13F4A2032126802432F
:100DC0003D4B20331A6006E03B4A203212688243D2
:100DD000394B20331A60704739B1374A24321268D0
:100DE0000243354B24331A6006E0334A243212683A
:100DF0008243314B24331A60704739B12E4A2C326A
:100E0000126802432C4B2C331A6006E02A4A2C321B
:100E100012688243284B2C331A60704739B1264A36
:100E2000303212680243244B30331A6006E0224A03
:100E3000303212688243204B30331A6070470128E9
:100E400008D11D493C31096841F008011A4A3C3279
:100E5000116007E018493C31096821F00801164A81
:100E60003C321160704739B1134A273A1278024375
:100E7000114B273B1A7006E00F4A273A127882433B
:100E80000D4B273B1A7070470B484030006840F00C
:100E90008070094940310860704701460020064AC9
:100EA000283A12680A400AB1012000E00020704789
:100EB00001492639087070473438024010B504469D
:100EC000FA48844208D101211020FFF752FF002187
:100ED0001020FFF74EFF57E0F548844209D1012169
:100EE0004804FFF735FF00214FF40030FFF730FFD3
:100EF0004AE0F048844209D101218804FFF728FF25
:100F000000214FF48020FFF723FF3DE0EA488442B0
:100F100009D10121C804FFF71BFF00214FF4002075
:100F2000FFF716FF30E0E548844209D101210805AA
:100F3000FFF70EFF00214FF48010FFF709FF23E0B9
:100F4000DF48844208D101212020FFF712FF002151
:100F50002020FFF70EFF17E0DA48844209D1012173
:100F60008807FFF7F5FE00214FF08040FFF7F0FE05
:100F70000AE0D548844207D101214005FFF7E8FE89
:100F800000216005FFF7E4FE10BD2DE9FF4705468F
:100F90000E460024A14600BFA046B08900B100BFA4
:100FA0002C8A24F44054F08804432C82AC8941F20A
:100FB0000C608443B0883189084371890843044335
:100FC000AC81AC8A24F44074B0890443AC82684696
:100FD000FFF74FFDB548854202D0B948854202D19E
:100FE000DDF80C9001E0DDF80890A88900F40040DD
:100FF00040B109EBC90000EB091031684900B0FBB2
:10100000F1F707E009EBC90000EB0910316889002E
:10101000B0FBF1F76420B7FBF0F004012009642174
:1010200001FB1078A88900F4004040B1322000EBA9
:10103000C800B0FBF1F000F00700044308E03220E4
:1010400000EB08106421B0FBF1F000F00F00044346
:101050002C81BDE8FF874FF416510160002181808B
:10106000C18001810C21418100218181704710B52F
:1010700002460020108A20F470600B884C882343BD
:101080008C882343CC8823431843108210BD002151
:10109000018041808180C180704721B1828942F402
:1010A0000052828104E082894DF6FF731A408281EA
:1010B0007047028B02F47F420283028B0A43028351
:1010C000704721B1828942F40042828103E0828923
:1010D000C2F30E028281704721B1828A42F400621B
:1010E000828204E0828A4FF2FF731A408282704744
:1010F000C1F308028280704701468888C0F3080067
:101100007047028A4FF6F0731A400282028A0A433D
:101110000282704721B1828942F00202828104E09A
:1011200082894FF6FD731A408281704782894FF29F
:10113000FF731A40828182890A4382817047028A42
:101140004FF6DF731A400282028A0A430282704716
:1011500021B1028A42F48042028204E0028A4BF604
:10116000FF731A4002827047818941F00101818139
:10117000704721B1828A42F00802828204E0828AAA
:101180004FF6F7731A4082827047028BD2B2028305
:10119000028B42EA01220283704721B1828A42F027
:1011A0002002828204E0828A4FF6DF731A40828234
:1011B000704721B1828A42F01002828204E0828A62
:1011C0004FF6EF731A4082827047828A4FF6FB73A4
:1011D0001A408282828A0A438282704721B1828ABF
:1011E00042F00202828204E0828A4FF6FD731A40C6
:1011F000828270471AB1838A0B43838202E0838A1A
:101200008B4383827047F0B50346002400260025F7
:10121000002040F66A17B94200D100BF1846C1F35A
:10122000421401F01F06012707FA06F5012C01D12F
:101230000C3004E0022C01D1103000E014301AB15F
:1012400007682F43076002E00768AF430760F0BDFF
:1012500002460020B1F5007F00D100BF13880B408B
:101260000BB1012000E00020704701F40072B2F5DC
:10127000007F00D100BFCA430280704770B50246AC
:10128000002400230025002040F66A16B14200D158
:1012900000BFC1F3421501F01F03012606FA03F354
:1012A000012D13D19689334017E000000010014052
:1012B0000044004000480040004C00400050004006
:1012C0000014014000780040007C0040022D02D153
:1012D000168A334001E0968A33400C12012606FA42
:1012E00004F41688344013B10CB1012000E0002052
:1012F00070BD10B50022002340F66A14A14200D14F
:1013000000BF0A1201249440A3B2DC43048010BD44
:1013100030B943F2DB028100A1F1C0410A6005E06F
:1013200043F2D2028100A1F1C0410A606FF0704225
:10133000411C8900A1F1C0410A608100A1F1C041B6
:10134000C1F804217047D0E901121143C26811436A
:10135000026911434269114382691143C269114311
:10136000026A1143426A1143826A1143C26A1143FD
:10137000026B114302689200A2F1C04211608168C1
:1013800008290BD101688900A1F1C041096841F029
:10139000400201688900A1F1C0410A60416B0968FF
:1013A000426B526841EA0211426B926841EA0221A3
:1013B000426B928941EA0241426B128A41EA025130
:1013C000426B127D41EA0261426B926911430268ED
:1013D000521C9200A2F1C0421160C16AB1F5804F67
:1013E0001BD1816B0968826B526841EA0211826BE2
:1013F000926841EA0221826B128A41EA0251826BB1
:10140000127D41EA0261826B926911430268920087
:10141000A2F1C042C2F8041107E06FF07042016807
:101420008900A1F1C041C1F8042170470021016089
:101430000221416000218160C160016141618161DF
:10144000C16101624FF48051416249008162002113
:10145000C1620163F84941638163704751B1820001
:10146000A2F1C042126842F001038200A2F1C04220
:10147000136009E08200A2F1C0421268EF4B1A40EB
:101480008300A3F1C0431A60704710280AD11821C5
:101490004FF020421166402151664FF0FC319166B9
:1014A000D16610E01821E64A116040214FF0204239
:1014B000C2F884104FF0FC31E14A083211604FF05D
:1014C0002042C2F88C10704730B500210022002362
:1014D000446844F0080485682C43C5682C430569BA
:1014E0002C43456944EA4524856944EA4531C46989
:1014F0002468C5696D6844EA0524C5692D8944EAF4
:101500000544C5692D7B44EA0562046A2468056ABE
:101510006D6844EA0524056A2D8944EA0544056A94
:101520002D7B44EA05630468102C05D14FF020445C
:101530002166A266E36608E0C14C21604FF02044BA
:10154000C4F88820BE4C0C34236030BD10210160EB
:10155000002141608160C160016141618161FC21C4
:10156000C2691160C2695160C2699160C269D1608B
:10157000026A1160026A5160026A9160026AD16077
:10158000704799B1102808D14FF02042126E42F0F6
:1015900004024FF020431A661DE0A94A126842F087
:1015A00004024FF02043C3F8802014E0102809D132
:1015B0004FF02042126EA14BDB1E1A404FF0204329
:1015C0001A6608E09E4A12689C4BDB1E1A404FF0D8
:1015D0002043C3F88020704799B1102808D14FF0FC
:1015E0002042126E42F040024FF020431A661DE086
:1015F000934A126842F040024FF02043C3F8802023
:1016000014E0102809D14FF02042126E8B4B3F3B63
:101610001A404FF020431A6608E0894A1268874B47
:101620003F3B1A404FF02043C3F8802070470146EB
:101630000020102903D14FF02042506F02E0804A71
:1016400014321068704718207D492031086000204E
:101650000906C1F8A4004FF0FC3079492831086030
:10166000091D0860091D08607047016841F01001FC
:10167000426841EA4221826841EA4231704A20329E
:101680001160C1680968C268526841EA0221C268F3
:10169000128941EA0241C268127B41EA0261684A4A
:1016A00028321160016909680269526841EA022121
:1016B0000269128941EA02410269127B41EA026130
:1016C0005F4A2C321160416909684269526841EAF7
:1016D00002214269128941EA02414269127B41EAD0
:1016E00002614FF02042C2F8B01070470021016043
:1016F00041608160FC21C2681160C2685160C268AB
:101700009160C268D160026911600269516002692A
:1017100091600269D1604269116042695160426919
:1017200091604269D160704748B1454920310968EC
:1017300041F004014FF02042C2F8A01009E04049F6
:10174000203109683D4AD21E11404FF02042C2F8B4
:10175000A010704710B5F2B1102807D14FF0204308
:101760005B6E0B434FF02044636632E0B0F5807F40
:1017700008D1334B1B1D1B680B434FF02044C4F8AA
:10178000843026E02E4B24331B680B434FF020445B
:10179000C4F8A4301DE0102807D14FF020435B6E41
:1017A0008B434FF02044636613E0B0F5807F08D18F
:1017B000234B1B1D1B688B434FF02044C4F884301F
:1017C00007E01F4B24331B688B434FF02044C4F8C1
:1017D000A43010BD10B5024600200023102A03D10A
:1017E0004FF02044636E09E0B2F5807F03D1144CC2
:1017F000241D236802E0124C2434236803EA010408
:101800000CB1012000E0002010BD102807D14FF0DE
:101810002042526E8A434FF020435A6619E0B0F5D9
:10182000807F0FD1064A121D12688A434FF0204371
:10183000C3F884200DE00000C4320008FEFF0F0052
:10184000800000A0234A12688A434FF02043C3F867
:10185000A420704770B50246002000230024002514
:10186000102A03D14FF02046736E08E0B2F5807F56
:1018700003D1184E203E336801E0164E336803EA68
:10188000010403EAD10514B10DB1012000E00020EC
:1018900070BD102808D14FF02042526E22EAD102CA
:1018A0004FF020435A6614E0B0F5807F09D1094A11
:1018B000203A126822EAD1024FF02043C3F8842074
:1018C00007E0044A126822EAD1024FF02043C3F82D
:1018D000A4207047A40000A010B504466FF00400D7
:1018E000FEF756FEE11704EB5171C1F3C701394A07
:1018F00011701046007800EB4001C1EBC0104FF6AC
:10190000FF7101EAC0003449088010BD0146314A28
:1019100012784A434FF0E0235A6100229A611A4636
:10192000126942F001021A6100BF4FF0E022106913
:1019300000F001021AB100F48032002AF5D04FF015
:10194000E022126922F001024FF0E0231A61002226
:101950009A6170470146204A12884A434FF0E023BB
:101960005A6100229A611A46126942F001021A6114
:1019700000BF4FF0E022106900F001021AB100F43C
:101980008032002AF5D04FF0E022126922F00102E5
:101990004FF0E0231A6100229A61704770B5044647
:1019A0004FF4077094FBF0F0C6B24FF4077094FB4D
:1019B000F0F100FB114085B205E04FF40770FFF72E
:1019C000C9FF701EC6B2002EF7D115B12846FFF729
:1019D000C1FF70BD2400002026000020014600BF8A
:1019E000704700BF4C4A128802F04002002AF9D02A
:1019F000C2B2494B9A80704710B588B004460121A5
:101A00000846FFF707F901211020FFF75DF90722CB
:101A100009214248FEF7EBFE07220A213F48FEF764
:101A2000E6FE4FF4C060069002208DF81C008DF891
:101A30001D0000208DF81E0001208DF81F0006A952
:101A40003648FEF749FE02940020ADF80C00ADF8D0
:101A50000E00ADF81000ADF814000C20ADF8120027
:101A600002A92D48FFF791FA01212B48FFF715FB3A
:101A7000012240F225512848FFF7C5FB25208DF8AB
:101A8000040003208DF805008DF8060001208DF874
:101A9000070001A8FEF72FFD08B010BD10B540F2F9
:101AA00025511D48FFF7EAFB10B31B48FFF724FB45
:101AB000C4B21B48008800F40040C8B91848008828
:101AC00000F4804060B10A2C03D000201449088043
:101AD00020E01348008840F400401149088019E0D4
:101AE0000D2C06D10E48008840F480400C49088037
:101AF00010E00B480088C0F30D000A490C54084858
:101B00000088401C0649088008460088C72801DD77
:101B10000020088010BD00000010014000000240BD
:101B20002C000020380000201CB501212020FFF7E8
:101B300071F84FF4C060009001208DF8040000207F
:101B40008DF8060003208DF8050001208DF80700B0
:101B500069460448FEF7C0FD4FF4C0610148FEF736
:101B600037FE1CBD0014024000B597B001210846A5
:101B7000FFF788F80420019003908006079000206A
:101B8000029004900590069006200890002009908D
:101B900008200A9010200B9000200C900E900D90C1
:101BA0000F9010904FF480501190002012904FF43D
:101BB000804013900020149001A81590169008A85A
:101BC000FFF7C1FB01210620FFF748FC17B000BD5D
:101BD00010B504462CB14FF40041FE48FEF7F8FD65
:101BE00004E04FF40041FB48FEF7F4FD10BD10B5D2
:101BF0000446072C00DD10BD204604EBD0714910CF
:101C0000A4EB410141B94FF4F070F34908804FF45F
:101C10004870F249088007E04FF44870EE490880A8
:101C20004FF4F070ED4908804FF43050EC490881D2
:101C30004FF4285048814FF42C5088814FF4F070B5
:101C400008804FF448704880362001F02BFB0021BB
:101C500041EA441001F02AFB4FF4285001F022FB26
:101C6000002001F023FB42F6012001F01BFB0020C5
:101C700001F01CFB42F6022001F014FBD649098852
:101C8000491EC1F3072001F011FB42F6032001F0C9
:101C900009FBD1490978491EC8B201F007FB4FF48E
:101CA0002C5001F0FFFA002001F000FB42F6013059
:101CB00001F0F8FA002001F0F9FA42F6023001F0E2
:101CC000F1FAC6490988491EC1F3072001F0EEFA6E
:101CD00042F6033001F0E6FAC0490978491EC8B25D
:101CE00001F0E4FA00BF86E71CB501217A20FEF777
:101CF00091FF00208DF8060001208DF807000220DA
:101D00008DF8040003208DF805004FF4804000900A
:101D10006946B448FEF7E0FC0C220E21B148FEF7FC
:101D200066FD4FF4004000906946AE48FEF7D4FCD3
:101D30000C220F21AB48FEF75AFD012000906946A6
:101D4000A848FEF7C9FC0C220021A648FEF74FFD6B
:101D5000022000906946A348FEF7BEFC0C22012138
:101D6000A048FEF744FD8020009069469E48FEF79B
:101D7000B3FC0C2207219C48FEF739FD4FF480701C
:101D8000009069469848FEF7A7FC0C220821964867
:101D9000FEF72DFD4FF40070009069469248FEF763
:101DA0009BFC0C2209219048FEF721FD4FF4806036
:101DB000009069468C48FEF78FFC0C220A218A4865
:101DC000FEF715FD4FF40060009069468648FEF767
:101DD00083FC0C220B218448FEF709FD4FF4805050
:101DE000009069468048FEF777FC0C2211467E4839
:101DF000FEF7FDFC4FF40050009069467A48FEF76C
:101E00006BFC0C220D217848FEF7F1FC4FF480406A
:101E1000009069467448FEF75FFC0C220E21724860
:101E2000FEF7E5FC4FF40040009069466E48FEF76F
:101E300053FC0C220F216C48FEF7D9FC4FF4807044
:101E4000009069466748FEF747FC0C220821654868
:101E5000FEF7CDFC4FF40070009069466148FEF734
:101E60003BFC0C2209215F48FEF7C1FC4FF4806067
:101E7000009069465B48FEF72FFC0C220A21594866
:101E8000FEF7B5FC1020009069465648FEF724FC8A
:101E90000C2204215348FEF7AAFC2020009069463A
:101EA0005048FEF719FC0C2205214E48FEF79FFC16
:101EB0004FF48050009069464C48FEF70DFC0C2210
:101EC00011464A48FEF793FC4FF480500090694653
:101ED0004748FEF701FC0C2211464548FEF787FCF7
:101EE00000208DF8060001208DF807008DF8040011
:101EF00002208DF805008003009069463548FEF702
:101F0000EBFB1CBD10B53B48006820F00F004FF004
:101F10002041C1F81C010846D0F81C0120F4706073
:101F2000C1F81C010846D0F81C0140F00300C1F8BC
:101F30001C010846D0F81C0140F40070C1F81C01D7
:101F400055214FF4704001F0A3F9AA214FF201008E
:101F500001F09EF952214FF2020001F099F9082197
:101F60004FF2030001F094F901214FF2040001F057
:101F70008FF90D214FF4304001F08AF90D214BF219
:101F8000010001F085F90D214BF2020001F080F90A
:101F900034214FF4364001F07BF934214BF20160DB
:101FA00001F076F934214BF2026001F071F90D2154
:101FB0004FF4314001F06CF90D214BF2011001F0AA
:101FC00067F90D214BF2021001F062F934214FF450
:101FD000374011E0000402402E00002030000020B5
:101FE00000010020000C02400010024000180240D6
:101FF000001402401C0100A001F04AF934214BF208
:10200000017001F045F934214BF2027001F040F902
:1020100000214FF4324001F03BF900214BF2012046
:1020200001F036F900214BF2022001F031F92421B0
:102030004FF4384001F02CF924214BF6010001F057
:1020400027F924214BF6020001F022F901214FF477
:102050003F4001F01DF90F214FF4334001F018F912
:102060000F214BF2013001F013F90F214BF2023036
:1020700001F00EF934214FF4394001F009F934210F
:102080004BF6011001F004F934214BF6021001F077
:10209000FFF808214FF4354001F0FAF808214BF21F
:1020A000015001F0F5F808214BF2025001F0F0F870
:1020B00003214FF4424001F0EBF824214FF43A4061
:1020C00001F0E6F824214BF6012001F0E1F824218B
:1020D0004BF6022001F0DCF800214FF43C4001F007
:1020E000D7F878214BF6014001F0D2F800214BF6E9
:1020F000024001F0CDF800214FF43D4001F0C8F856
:1021000078214BF6015001F0C3F800214BF6025044
:1021100001F0BEF800214FF43E4001F0B9F864210F
:102120004BF6016001F0B4F800214FF4514001F08A
:10213000AFF833214DF2011001F0AAF800214DF261
:10214000021001F0A5F834214DF2031001F0A0F8BF
:1021500000214DF2041001F09BF83A214DF20510D8
:1021600001F096F800214DF2061001F091F84A2195
:102170004DF2071001F08CF800214DF2081001F02B
:1021800087F85C214DF2091001F082F800214DF230
:102190000A1001F07DF881214DF20B1001F078F862
:1021A00000214DF20C1001F073F8A6214DF20D1034
:1021B00001F06EF800214DF20E1001F069F8E521F2
:1021C0004DF20F1001F064F801214DF2101001F0F2
:1021D0005FF813214DF2111001F05AF801214DF270
:1021E000121001F055F854214DF2131001F050F87F
:1021F00001214DF2141001F04BF882214DF215101F
:1022000001F046F801214DF2161001F041F8CA2103
:102210004DF2171001F03CF802214DF2181001F0B8
:1022200037F800214DF2191001F032F802214DF279
:102230001A1001F02DF801214DF21B1001F028F8C1
:1022400002214DF21C1001F023F834214DF21D1033
:1022500001F01EF802214DF21E1001F019F867215D
:102260004DF21F1001F014F802214DF2201001F080
:102270000FF884214DF2211001F00AF802214DF2ED
:10228000221001F005F8A4214DF2231001F000F80E
:1022900002214DF2241000F0FBFFB7214DF2251072
:1022A00000F0F6FF02214DF2261000F0F1FFCF21E1
:1022B0004DF2271000F0ECFF02214DF2281000F043
:1022C000E7FFDE214DF2291000F0E2FF02214DF27E
:1022D0002A1000F0DDFFF2214DF22B1000F0D8FFA4
:1022E00002214DF22C1000F0D3FFFE214DF22D10F3
:1022F00000F0CEFF03214DF22E1000F0C9FF102197
:102300004DF22F1000F0C4FF03214DF2301000F009
:10231000BFFF33214DF2311000F0BAFF03214DF21F
:10232000321000F0B5FF6D214DF2331000F0B0FF18
:1023300000214FF4524000F0ABFF33214DF2012059
:1023400000F0A6FF00214DF2022000F0A1FF342191
:102350004DF2032000F09CFF00214DF2042000F01C
:1023600097FF3A214DF2052000F092FF00214DF237
:10237000062000F08DFF4A214DF2072000F088FF73
:1023800000214DF2082000F083FF5C214DF209206E
:1023900000F07EFF00214DF20A2000F079FF81213C
:1023A0004DF20B2000F074FF00214DF20C2000F0E4
:1023B0006FFFA6214DF20D2000F06AFF00214DF2C3
:1023C0000E2000F065FFE5214DF20F2000F060FFC8
:1023D00001214DF2102000F05BFF13214DF211207E
:1023E00000F056FF01214DF2122000F051FF542160
:1023F0004DF2132000F04CFF01214DF2142000F0AB
:1024000047FF82214DF2152000F042FF01214DF2DD
:10241000162000F03DFFCA214DF2172000F038FFD2
:1024200002214DF2182000F033FF00214DF2192057
:1024300000F02EFF02214DF21A2000F029FF0121A9
:102440004DF21B2000F024FF02214DF21C2000F071
:102450001FFF34214DF21D2000F01AFF02214DF222
:102460001E2000F015FF67214DF21F2000F010FF25
:1024700002214DF2202000F00BFF84214DF221209B
:1024800000F006FF02214DF2222000F001FFA421FE
:102490004DF2232000F0FCFE02214DF2242000F03A
:1024A000F7FEB7214DF2252000F0F2FE02214DF299
:1024B000262000F0EDFECF214DF2272000F0E8FEAF
:1024C00002214DF2282000F0E3FEDE214DF229200A
:1024D00000F0DEFE02214DF22A2000F0D9FEF221AA
:1024E0004DF22B2000F0D4FE02214DF22C2000F002
:1024F000CFFEFE214DF22D2000F0CAFE03214DF249
:102500002E2000F0C5FE10214DF22F2000F0C0FE5D
:1025100003214DF2302000F0BBFE33214DF231207B
:1025200000F0B6FE03214DF2322000F0B1FE6D2125
:102530004DF2332000F0ACFE00214FF4534000F088
:10254000A7FE33214DF2013000F0A2FE00214DF232
:10255000023000F09DFE34214DF2033000F098FE71
:1025600000214DF2043000F093FE3A214DF2053087
:1025700000F08EFE00214DF2063000F089FE4A2167
:102580004DF2073000F084FE00214DF2083000F0DB
:102590007FFE5C214DF2093000F07AFE00214DF201
:1025A0000A3000F075FE81214DF20B3000F070FE14
:1025B00000214DF20C3000F06BFEA6214DF20D30E3
:1025C00000F066FE00214DF20E3000F061FEE521C4
:1025D0004DF20F3000F05CFE01214DF2103000F0A2
:1025E00057FE13214DF2113000F052FE01214DF241
:1025F000123000F04DFE54214DF2133000F048FE31
:1026000001214DF2143000F043FE82214DF21530CD
:1026100000F03EFE01214DF2163000F039FECA21D5
:102620004DF2173000F034FE02214DF2183000F068
:102630002FFE00214DF2193000F02AFE02214DF24A
:102640001A3000F025FE01214DF21B3000F020FE73
:1026500002214DF21C3000F01BFE34214DF21D30E2
:1026600000F016FE02214DF21E3000F011FE67212F
:102670004DF21F3000F00CFE02214DF2203000F030
:1026800007FE84214DF2213000F002FE02214DF2BE
:10269000223000F0FDFDA4214DF2233000F0F8FDC2
:1026A00002214DF2243000F0F3FDB7214DF2253028
:1026B00000F0EEFD02214DF2263000F0E9FDCF21C1
:1026C0004DF2273000F0E4FD02214DF2283000F0F9
:1026D000DFFDDE214DF2293000F0DAFD02214DF25E
:1026E0002A3000F0D5FDF2214DF22B3000F0D0FD64
:1026F00002214DF22C3000F0CBFDFE214DF22D30A9
:1027000000F0C6FD03214DF22E3000F0C1FD102176
:102710004DF22F3000F0BCFD03214DF2303000F0BF
:10272000B7FD33214DF2313000F0B2FD03214DF2FF
:10273000323000F0ADFD6D214DF2333000F0A8FDD8
:1027400000214FF4544000F0A3FD33214DF201402D
:1027500000F09EFD00214DF2024000F099FD342171
:102760004DF2034000F094FD00214DF2044000F0D2
:102770008FFD3A214DF2054000F08AFD00214DF217
:10278000064000F085FD4A214DF2074000F080FD33
:1027900000214DF2084000F07BFD5C214DF2094024
:1027A00000F076FD00214DF20A4000F071FD81211C
:1027B0004DF20B4000F06CFD00214DF20C4000F09A
:1027C00067FDA6214DF20D4000F062FD00214DF2A3
:1027D0000E4000F05DFDE5214DF20F4000F058FD88
:1027E00001214DF2104000F053FD13214DF2114034
:1027F00000F04EFD01214DF2124000F049FD542140
:102800004DF2134000F044FD01214DF2144000F060
:102810003FFD82214DF2154000F03AFD01214DF2BD
:10282000164000F035FDCA214DF2174000F030FD92
:1028300002214DF2184000F02BFD00214DF219400D
:1028400000F026FD02214DF21A4000F021FD012189
:102850004DF21B4000F01CFD02214DF21C4000F027
:1028600017FD34214DF21D4000F012FD02214DF202
:102870001E4000F00DFD67214DF21F4000F008FDE5
:1028800002214DF2204000F003FD84214DF2214051
:1028900000F0FEFC02214DF2224000F0F9FCA421E0
:1028A0004DF2234000F0F4FC02214DF2244000F0F0
:1028B000EFFCB7214DF2254000F0EAFC02214DF279
:1028C000264000F0E5FCCF214DF2274000F0E0FC6F
:1028D00002214DF2284000F0DBFCDE214DF22940C0
:1028E00000F0D6FC02214DF22A4000F0D1FCF2218A
:1028F0004DF22B4000F0CCFC02214DF22C4000F0B8
:10290000C7FCFE214DF22D4000F0C2FC03214DF228
:102910002E4000F0BDFC10214DF22F4000F0B8FC1D
:1029200003214DF2304000F0B3FC33214DF2314031
:1029300000F0AEFC03214DF2324000F0A9FC6D2105
:102940004DF2334000F0A4FC00214FF4554000F05C
:102950009FFC33214DF2015000F09AFC00214DF212
:10296000025000F095FC34214DF2035000F090FC31
:1029700000214DF2045000F08BFC3A214DF205503D
:1029800000F086FC00214DF2065000F081FC4A2147
:102990004DF2075000F07CFC00214DF2085000F091
:1029A00077FC5C214DF2095000F072FC00214DF2E1
:1029B0000A5000F06DFC81214DF20B5000F068FCD4
:1029C00000214DF20C5000F063FCA6214DF20D5099
:1029D00000F05EFC00214DF20E5000F059FCE521A4
:1029E0004DF20F5000F054FC01214DF2105000F058
:1029F0004FFC13214DF2115000F04AFC01214DF221
:102A0000125000F045FC54214DF2135000F040FCF0
:102A100001214DF2145000F03BFC82214DF2155083
:102A200000F036FC01214DF2165000F031FCCA21B5
:102A30004DF2175000F02CFC02214DF2185000F01E
:102A400027FC00214DF2195000F022FC02214DF22A
:102A50001A5000F01DFC01214DF21B5000F018FC33
:102A600002214DF21C5000F013FC34214DF21D5098
:102A700000F00EFC02214DF21E5000F009FC67210F
:102A80004DF21F5000F004FC02214DF2205000F0E6
:102A9000FFFB84214DF2215000F0FAFB02214DF2A0
:102AA000225000F0F5FBA4214DF2235000F0F0FB82
:102AB00002214DF2245000F0EBFBB7214DF22550DE
:102AC00000F0E6FB02214DF2265000F0E1FBCF21A1
:102AD0004DF2275000F0DCFB02214DF2285000F0AF
:102AE000D7FBDE214DF2295000F0D2FB02214DF23E
:102AF0002A5000F0CDFBF2214DF22B5000F0C8FB24
:102B000002214DF22C5000F0C3FBFE214DF22D505E
:102B100000F0BEFB03214DF22E5000F0B9FB102156
:102B20004DF22F5000F0B4FB03214DF2305000F075
:102B3000AFFB33214DF2315000F0AAFB03214DF2DF
:102B4000325000F0A5FB6D214DF2335000F0A0FB98
:102B500000214FF4564000F09BFB33214DF2016001
:102B600000F096FB00214DF2026000F091FB342151
:102B70004DF2036000F08CFB00214DF2046000F088
:102B800087FB3A214DF2056000F082FB00214DF2F7
:102B9000066000F07DFB4A214DF2076000F078FBF3
:102BA00000214DF2086000F073FB5C214DF20960DA
:102BB00000F06EFB00214DF20A6000F069FB8121FC
:102BC0004DF20B6000F064FB00214DF20C6000F050
:102BD0005FFBA6214DF20D6000F05AFB00214DF283
:102BE0000E6000F055FBE5214DF20F6000F050FB48
:102BF00001214DF2106000F04BFB13214DF21160EA
:102C000000F046FB01214DF2126000F041FB54211F
:102C10004DF2136000F03CFB01214DF2146000F016
:102C200037FB82214DF2156000F032FB01214DF29D
:102C3000166000F02DFBCA214DF2176000F028FB52
:102C400002214DF2186000F023FB00214DF21960C3
:102C500000F01EFB02214DF21A6000F019FB012169
:102C60004DF21B6000F014FB02214DF21C6000F0DD
:102C70000FFB34214DF21D6000F00AFB02214DF2E2
:102C80001E6000F005FB67214DF21F6000F000FBA5
:102C900002214DF2206000F0FBFA84214DF2216008
:102CA00000F0F6FA02214DF2226000F0F1FAA421C0
:102CB0004DF2236000F0ECFA02214DF2246000F0A6
:102CC000E7FAB7214DF2256000F0E2FA02214DF259
:102CD000266000F0DDFACF214DF2276000F0D8FA2F
:102CE00002214DF2286000F0D3FADE214DF2296076
:102CF00000F0CEFA02214DF22A6000F0C9FAF2216A
:102D00004DF22B6000F0C4FA02214DF22C6000F06D
:102D1000BFFAFE214DF22D6000F0BAFA03214DF208
:102D20002E6000F0B5FA10214DF22F6000F0B0FADD
:102D300003214DF2306000F0ABFA33214DF23160E7
:102D400000F0A6FA03214DF2326000F0A1FA6D21E5
:102D50004DF2336000F09CFA55214FF4704000F0C2
:102D600097FAAA214FF2010000F092FA52214FF295
:102D7000020000F08DFA08214FF2030000F088FAFB
:102D800000214FF2040000F083FACC214FF43140CF
:102D900000F07EFA00214BF2011000F079FA0521D3
:102DA0004FF4364000F074FA70214FF4374000F0D1
:102DB0006FFA70214BF2017000F06AFA01214FF4B2
:102DC000384000F065FA03214BF6010000F060FA8C
:102DD00003214BF6020000F05BFA03214BF60300DF
:102DE00000F056FA02214FF43C4000F051FA002165
:102DF0004BF6014000F04CFA00214BF6024000F087
:102E000047FAD0214FF4494000F042FA02214CF633
:102E1000011000F03DFA50214CF6021000F038FA93
:102E200050214CF6031000F033FA50214CF60410F8
:102E300000F02EFA00214FF4545000F029FA5521E9
:102E40004FF4685000F024FA4FF4885000F02AFA4A
:102E50007820FEF75BFD4FF4245000F023FA10BDFC
:102E60002DE9F04704460D4616461F46DDF8209032
:102E70004FF000086649488900F014FA201200F06B
:102E800015FA63494989491C88B200F00BFAE0B28F
:102E900000F00CFA5E494989891C88B200F002FAF8
:102EA000301200F003FA5A494989C91C88B200F06F
:102EB000F9F9F0B200F0FAF95549888900F0F2F911
:102EC000281200F0F3F952498989491C88B200F0B0
:102ED000E9F9FF2095FBF0F100FB11501FFA80FA91
:102EE000504600F0E3F94A498989891C88B200F00C
:102EF000D9F9381200F0DAF945498989C91C88B234
:102F000000F0D0F9F8B200F0D1F94149088900F099
:102F1000C9F900BF04E0484600F0C8F908F101080B
:102F2000301B401C791B491C48434045F3D8BDE881
:102F3000F0873748008937490880704770B50446E4
:102F40000D463349488900F0ADF9201200F0AEF982
:102F50002F494989491C88B200F0A4F9E0B200F079
:102F6000A5F92B49888900F09DF9281200F09EF9F7
:102F700027498989491C88B200F094F9E8B200F029
:102F800095F970BD70B50446002621480588408833
:102F9000454300210846FFF7D1FFFFF7CAFF00BFF6
:102FA00003E01C48801C0480761CAE42F9D370BD3F
:102FB00038B500200090FEF797FEFEF7D5FD3220D1
:102FC000FEF7ECFC0121002000F062F93220FEF750
:102FD000E5FC0024204600F065F90520FEF796FC8C
:102FE00000BF0C48801C008800BF0949888045F25A
:102FF00010508880FEF786FF07480078FEF7F7FD3F
:103000000120FEF7E5FD4FF6FF70FFF7BBFF38BD6F
:10301000000100207E00006C32000020704700009C
:103020000FB4044910B503AA029800F0D3F810BCFD
:103030005DF814FB280000202DE9F0410E460446FF
:10304000002020622046E168884730B3252805D05B
:10305000D4E901219047206A401CF2E7E16820464C
:1030600000278847050018D0A5F14100192802D88B
:1030700020354FF400673246294620462760FDF789
:10308000BDF840B1012804D0F61D26F00706083629
:10309000D8E7361DD6E72846DAE7206ABDE8F08192
:1030A0002DE9F0410646002410687529314616A521
:1030B00010D0AFF30080002802DA404213A507E0E9
:1030C00031688A0701D512A502E0490704D511A588
:1030D000012401E0AFF3008000210A2206F1240759
:1030E00009E0B0FBF2FCB0FBF2F302FB1C00303055
:1030F00078541846491C0028F3D123462A46304606
:10310000BDE8F04100F00CB8000000002D00000008
:103110002B00000020000000704770477047704788
:103120002DE9F0470D4699469246044600F12408E1
:103130000168880604D5E06921F01001216000E0F3
:103140000120A84201DD471B00E00027A1697A1990
:1031500002EB0900081AA0612078C00602D42046BC
:10316000AFF30080002608E0D4E901211AF8060038
:103170009047206A401C761C20624E45F4DB207884
:10318000C0060AD52046AFF3008006E0D4E901214D
:1031900030209047206A401C2062381EA7F10107AA
:1031A000F4DC07E0D4E9012118F805009047206A13
:1031B000401C2062281EA5F10105F3DC2046AFF378
:1031C00000802078000602D50220BDE8F0870120AB
:1031D000FBE70000074B70B50D467B4400F011F88B
:1031E0000446284600F020F810B14FF0FF3070BDC3
:1031F000204670BD05E8FFFF01694A1C026108789E
:10320000704700B58FB0CDE9013100210591054926
:103210007944CDE9031011466846FFF70DFF0FB062
:1032200000BD0000E5FFFFFF007B00F0800070475D
:10323000754600F029F8AE4605006946534620F071
:103240000700854618B020B5FDF73EF9BDE82040DF
:103250004FF000064FF000074FF000084FF0000B52
:1032600021F00701AC46ACE8C009ACE8C009ACE805
:10327000C009ACE8C0098D4670470446AFF3008032
:103280002046FCF7CFFF00000048704710010020E7
:1032900070B505460C46284600F004F8204600F0BC
:1032A00005F870BD4FF0D84108807047014908808B
:1032B000704700008000006C4FF04070E1EE100A93
:1032C000704700000F0000000F000000FF0000002A
:1032D0000F0000000F0000000F00000000000000C1
:1032E000003300080000002038000000C40100087E
:1032F000383300083800002038070000E0010008DB
:10330000007A030A0000000000000000010203042C
:10331000060708090000000001020304010203047B
:10332000060708090000000000000000000020035C
:08333000E001000000000000B4
:040000050800018965
:00000001FF
